:020000040800F2
:10000000F8040020A5010008BF1E00084F1B0008CF
:10001000BD1E0008E90700080125000800000000D7
:100020000000000000000000000000006D2000083B
:10003000EB07000800000000C11E00086F20000848
:10004000BF010008BF010008BF010008BF01000890
:10005000BF010008BF010008BF010008BF01000880
:10006000BF010008BF010008BF010008BF01000870
:10007000BF010008BF010008BF010008BF01000860
:10008000BF010008BF010008BF010008BF01000850
:10009000BF010008BF010008BF010008BF01000840
:1000A000BF010008BF010008BF010008BF01000830
:1000B000BF0100080000000000000000BF010008B0
:1000C000BF0100080000000000000000BF010008A0
:1000D00000000000BF010008BF0100080000000090
:1000E000BF010008BF010008000000000000000080
:1000F0000000000000000000000000000000000000
:10010000000000000000000000000000BF01000827
:100110000000000000000000BF010008BF0100084F
:10012000BF010008BF010008BF010008BF010008AF
:10013000BF010008000000000000000000000000F7
:10014000BF010008BF010008BF010008BF0100088F
:10015000BF010008BF010008BF010008BF0100087F
:10016000BF010008BF010008BF0100080000000037
:10017000BF010008BF0100080000000000000000EF
:10018000BF010008BF010008BF010008DFF810D060
:1001900000F006FB0048004749330008AFF3008039
:1001A000F80400200648804706480047FEE7FEE7BF
:1001B000FEE7FEE7FEE7FEE7FEE7FEE7FEE7FEE717
:1001C0001D2100088D0100082DE9F05F0546002083
:1001D00092469B4688460646814640241BE02846B8
:1001E00041464746224600F0A6F953465A46C01AF1
:1001F000914110D311461846224600F08DF92D1A70
:1002000067EB01084F4622460120002100F084F9E7
:1002100017EB00094E41201EA4F10104DFDC484623
:1002200031462A46434600F000B830BCBDE8C09FC6
:10023000D2B201E000F8012B491EFBD27047002228
:10024000F6E710B513460A4604461946FFF7F0FFD5
:10025000204610BD2DE9FE4F81EA030404F000445E
:1002600021F0004100944FF0000B23F0004350EACE
:1002700001045ED052EA03045BD0C3F30A54C1F315
:100280000A552C44A4F2F3340194A0FB0254C1F3A8
:10029000130141F48011C3F3130343F4801301FBF2
:1002A000024400FB034E840A970A44EA815447EA59
:1002B0008357A4FB076802958D0A05FB07854FEA63
:1002C000932C04FB0C542705029D4FEA065847EA7D
:1002D0001637B5EB08056EEB070C870E920E47EA52
:1002E000811742EA8312A7FB0201B6EB0B0164EB14
:1002F00000042B0D43EA0C335E1844EB1C50DA4625
:100300005146E7FB0201C5F313044FEA0B3343EAFE
:1003100014534FEA0432019C43EA0603A4F10C048F
:100320000294009CCDE900B400F024F903B000F081
:1003300003B800200146F9E730BCBDE8C08F2DE9C5
:10034000F04D81EA030404F0004B21F0004514460F
:100350004FF0000A23F0004150EA050220D054EA91
:1003600001021DD0C5F30A570246C5F31303C1F3BA
:100370001300C1F30A5640F4801543F48013A7EB31
:100380000608101BD64608F2FD3873EB050002D3B1
:1003900008F1010801E092185B41B8F1000F03DA9F
:1003A00000200146BDE8F08D00204FF48011064684
:1003B00084460EE0171B73EB050705D3121B63EB96
:1003C000050306434CEA010C49084FEA3000921835
:1003D0005B4150EA0107EDD152EA030012D082EAF4
:1003E000040083EA0501084305D0101BAB4106D287
:1003F0000122002306E000224FF0004302E06FF0EC
:10040000010253101AEB06004CEB085110EB0A00E6
:1004100041EB0B01BDE8F04D00F09DB80EB5C10FEA
:1004200080EAE0700844CA07002140F233438DE8B7
:100430000E000A460B4600F09DF803B000BD0EB555
:1004400040F2334102910021CDE900110A460B46EA
:1004500000F090F803B000BDC1F30A5210B5C1F32B
:10046000130140F2FF3341F480119A4201DA002077
:1004700010BD40F233439A42A2F2334203DC5242AF
:1004800000F059F810BD904010BD000030B5041EBA
:1004900071F1000404DB4FF00044404264EB0101C1
:1004A000141E73F1000405DB1C464FF0004352425A
:1004B00063EB04038B4208BF824230BD30B5041E9B
:1004C00071F1000404DB4FF00044404264EB010191
:1004D000141E73F1000405DB1C464FF0004352422A
:1004E00063EB0403994208BF904230BD30B50B4620
:1004F000014600202022012409E021FA02F59D4254
:1005000005D303FA02F5491B04FA02F52844151E27
:10051000A2F10102F1DC30BD202A04DB203A00FA0E
:1005200002F1002070479140C2F1200320FA03F34A
:10053000194390407047202A04DB203A21FA02F048
:100540000021704721FA02F3D040C2F1200291400D
:1005500008431946704710B5141E73F1000408DAF9
:10056000401C41F1000192185B411A4301D120F077
:10057000010010BD2DE9F04D92469B4611B1B1FA34
:1005800081F202E0B0FA80F220329046FFF7C4FF19
:1005900004460F4640EA0A0041EA0B0153465A4618
:1005A000084313D0114653EA010019D0C8F14002A4
:1005B0005046FFF7C0FF05460E4650465946424694
:1005C000FFF7AAFF084305D0012004E02046394682
:1005D000BDE8F08D0020054346EAE0762C43374322
:1005E0000A986305E40AA0EB08000022FD0A44EA29
:1005F00047540A3002D500200146E9E701051019E9
:100600006941DDE9084500196941BDE8F04DA2E7FF
:100610002DE9FE4F804681EA0300C00F0C46009092
:1006200021F0004123F00045B8EB0200A94105D2BA
:100630004046214690461C460B46024623F00040A9
:10064000104347D0270DC7F30A00C3F30A510290A5
:10065000401A019040286BDAC3F3130040F4801B6A
:100660000098924620B10023D2EB030A63EB0B0BF8
:1006700001985946C0F140025046FFF74DFF06462B
:100680000D4650465946019A00F09CF810EB0800C0
:100690006141002487EA115284EAE7731A4340D08B
:1006A000009A62B3019A012A4FEA075215DC001B37
:1006B00061EB02014FF0004202EA0752CDE900422D
:1006C000001C41F5801132462B46FFF753FF03B063
:1006D00000F045B840462146F9E7001B61EB0201F6
:1006E000001C41F5801300185B412018A2F500178B
:1006F00047EB030140EAD570B6196D4111E06D0872
:100700004FEA360645EAC0754FEA0752001B61EB17
:100710000201001C41F5801149084FEA3000001920
:10072000514132462B4603B000F01CB8FFF713BF0F
:100730000098012240000023D0EB020263EBE0733B
:10074000009821464FEAE074B8EB000061EB040129
:10075000E9E783F000435BE781F0004158E730BCF4
:10076000BDE8C08F30BCBDE8C04FFFF7DFBFC1F3AD
:100770000A52C1F3130140F2FF3341F480119A424F
:1007800002DA00200146704740F233439A42A2F257
:10079000334202DC5242FFF7CEBEFFF7BDBE00007F
:1007A000064C074D06E0E06840F0010394E80700BE
:1007B00098471034AC42F6D3FFF7ECFCB83500088C
:1007C000D8350008202A06DBCB17203A41FA02F080
:1007D00043EAE07306E041FA02F3D040C2F120029E
:1007E0009140084319467047FEE7704772B6FEE72E
:1007F00070B5044600F0ECF80546601C02D00448D1
:100800000078044400F0E4F8401BA042FAD370BD25
:10081000140000202DE9FC4FDFF880A10023012502
:100820000AF1040B03244FF00F0C0BF1040EAEE0A1
:1008300005FA03F632406FD04F68012F05D0022F22
:1008400003D0112F01D0122F17D1D0F808905F00DC
:1008500004FA07F829EA08090097D1F80C8008FA89
:1008600007F848EA0908C0F808804768B7430E79D6
:10087000C6F300169E403E434660C6684FEA4308F2
:1008800004FA08F7BE4301978F6807FA08F7374361
:10089000C7604E68022E01D0122E13D1DE0800EB85
:1008A00086060096366A5F07FF0E0CFA07F926EAFD
:1008B0000906D1F8109009FA07F949EA0609009EDD
:1008C000C6F820900768019EB7430E7906F003062C
:1008D00006FA08F63E4306604E68F60056D5304EDE
:1008E000376E47F001073766366E23F0030706F0D0
:1008F000010600962B4E3E44B146B6689F074FEA6C
:1009000017780CFA08F7BE43B0F1904F05D0264F88
:10091000B84204D1012708E038E0002705E0234F62
:10092000B84201D1022700E0072707FA08F737434A
:10093000C9F80870DAF800605746D1F80480964389
:100940005FEAC83800D516433E60DBF800605F46BA
:10095000D1F8048096435FEA883800D516433E609C
:10096000DEF800607746D1F8048096435FEAC82835
:1009700000D516433E60094F0C373E68D1F804801D
:1009800096435FEA882800D516433E605B1C0A68E0
:1009900032FA03F67FF44CAF00F00AB800040140CD
:1009A0000010024000000140000400480008004818
:1009B0001CBCBDE8E08F426921EA02030A4043EA19
:1009C0000241816170470AB181617047816270475D
:1009D00001488068704700001400002090F8412012
:1009E000202A24D190F84020012A20D0012280F82A
:1009F0004020242280F841200268136823F001037C
:100A000013600268136823F480531360026813684C
:100A10000B43136001680A6842F001020A6020215A
:100A200080F84110002180F84010084670470220ED
:100A3000704790F84120202A22D190F84020012AC6
:100A40001ED0012280F84020242280F84120026834
:100A5000136823F0010313600268136823F47063C2
:100A600043EA0121116001680A6842F001020A604C
:100A7000202180F84110002180F84010084670477E
:100A800002207047406C704790F8410070470000AA
:100A900070B5040004D094F84100002510B106E0C0
:100AA000012070BD84F84050204600F079F92420E0
:100AB00084F841002068016821F00101016060684C
:100AC000216820F0706008612068816821F400418D
:100AD0008160E0680128A06807D040F404402168E4
:100AE0008860E068022803D006E040F40040F6E7A2
:100AF00021684FF40060486020684168114A114342
:100B000041602068C16821F40041C160D4E904015A
:100B10000843A16940EA01202168C860D4E90701BF
:100B20000843216808602068016841F00101016004
:100B30006564202084F84100256384F84250002039
:100B400070BD0000008000022DE9F84F044690F8C7
:100B50004100DDF828A01F4690468B4620287ED114
:100B600094F8400001287AD0012084F84000FFF773
:100B70002FFF0646012200901923D103204601F0E1
:100B800051F8E0BB222084F84100102084F8420094
:100B900000256564C4F8248067856563618D3148EC
:100BA000FF274FF080784FF00079FF2903D9278580
:100BB0003A46009039E0618D218500903AE059462F
:100BC000204601F019F813E001F058F8B8B9206890
:100BD000406A616A0870606A401C6062208D401E35
:100BE00080B22085618D491E6185618D01B168B13A
:100BF000608D3246002851462046E5D100E002E0F3
:100C000001F07EF8D0B1012000F030B85346002248
:100C100080212046009601F005F80028F3D1608D70
:100C2000FF2804D927853A4600954346C7E7608DDB
:100C30002085009594F828204B46C0E721682020A5
:100C4000C86121684A68084B1A404A6084F841002C
:100C500084F8425084F840500020D5E7FFE7022096
:100C6000D2E700000024008000E800FE18BCBDE8C8
:100C7000E08F00002DE9F84F044690F84100DDF8C0
:100C800028A01F4690468B4620287ED194F840002D
:100C900001287AD0012084F84000FFF799FE06462B
:100CA000012200901923D103204600F0BBFFE0BBD6
:100CB000212084F84100102084F84200002565645A
:100CC000C4F8248067856563618D3148FF274FF044
:100CD00080784FF00079FF2903D927853A460090A4
:100CE00039E0618D218500903AE05946204600F0B8
:100CF00083FF13E001F02AF8B8B9606A2168007830
:100D00008862606A401C6062608D401E6085208D34
:100D1000401E80B22085618D01B168B1608D324680
:100D2000002851462046E5D100E002E000F0E8FF4F
:100D3000D0B1012000F030B8534600228021204677
:100D4000009600F06FFF0028F3D1608DFF2804D9D2
:100D500027853A4600954346C7E7608D2085009574
:100D600094F828204B46C0E721682020C8612168FC
:100D70004A68084B1A404A6084F8410084F842509F
:100D800084F840500020D5E7FFE70220D2E70000BA
:100D90000020008000E800FE18BCBDE8E08F0000E5
:100DA00010B586B0044614216846FFF748FA134987
:100DB0002068884220D1124CE06C40F00100E064D1
:100DC000E06C694600F0010005904FF4C0600090AF
:100DD000122001900120029003200390042004902F
:100DE0004FF09040FFF716FDA06D40F40010A06595
:100DF000A06D00F40010059006B010BD0054004036
:100E000000100240024881680278114481607047F6
:100E10001400002010B50024032000F063F8002027
:100E200000F008F808B1012401E000F025F82046A0
:100E300010BD000070B50E4E05460024307898B104
:100E40004FF47A71B1FBF0F00A490968B1FBF0F098
:100E500000F0A8FD40B9102D06D200222946501EF0
:100E600000F020F8756000E00124204670BD00000D
:100E70001400002020000020094808B5016E41F050
:100E800001010166016E01F001010091816D41F0E7
:100E900080518165806D00F08050009008BD000099
:100EA00000100240F0B40E4B1B680C46C3F3022343
:100EB000C3F10705042D00D90425191D072901D206
:100EC000002300E0DB1E012606FA05F1491E214041
:100ED00099409E40761E16403143F0BC01F03CBB69
:100EE0000CED00E0064900F0070208684FF6FF032A
:100EF000184040EA0220034A10430860704700008F
:100F00000CED00E00000FA051649B0F5007F086816
:100F1000C0F3412009D0022805D0086820F4C06041
:100F200040F480600860002070470128FBD008680A
:100F300020F4C06040F4007008600B483222006862
:100F400050430A4AB0FBF2F0401C00E0401E4A69E0
:100F5000520501D50028F9D148694005E3D50320A1
:100F600070470000007000402000002040420F0049
:100F70000248006800F4C060704700000070004044
:100F80000248016841F480710160704700700040C0
:100F90000248016841F004010160704700100240FE
:100FA0002DE9F84F0446002700889C4D3E46000579
:100FB00015D5E06B60B1B0F5000F04D0B0F5400F6F
:100FC0002BD001270AE0E86840F48030E86024E094
:100FD0000021201D00F076FF07001ED03E4620684D
:100FE000800338D5A86D4FF00008C00009D4A86D63
:100FF00040F08050A865A86D4FF0010800F08050C7
:101000000090DFF81CA2DAF8001041F48071CAF8F1
:101010000010FFF7DDFC814610E0D5F88800E16B99
:1010200020F440000843C5F88800D8E7FFF7D0FC5B
:10103000A0EB0900022801D9032704E0DAF8000038
:10104000C005F3D5EFB33E46B8F1000F03D0A86D4D
:1010500020F08050A8652078C00707D0D5F8880018
:10106000216A20F003000843C5F888002078800733
:1010700007D5D5F88800616A20F00C000843C5F850
:1010800088002078800607D5D5F88800A16A20F46A
:1010900040600843C5F888002088800507D5D5F84A
:1010A0008800616B20F440200843C5F88800208840
:1010B000400509D5D5F88800A16B20F440100843FD
:1010C00000E02EE0C5F888002078400607D5D5F866
:1010D0008800E16A20F440500843C5F88800208861
:1010E000C00507D5D5F88800216B20F440300843AF
:1010F000C5F8880020884FF0006780044FF08068B2
:101100004ED5D5F88800216C20F040600843C5F822
:101110008800206CB8423BD1E86840F48010E86059
:101120003EE0D5F8900010F4407014D0216D81425B
:1011300011D0D5F89000D5F8901020F4407041F40B
:101140008031C5F89010D5F8901021F48031C5F8A1
:101150009010C5F89000C00711D0FFF739FC074682
:1011600041F2883907E000BFFFF732FCC11B494557
:1011700001D9032668E7D5F890008007F4D5D5F8A3
:101180009000216D20F440700843C5F890005BE7A3
:10119000404505D10121201D00F094FE00B1064616
:1011A0002068400317D5D5F88800616C20F04060B6
:1011B0000843C5F88800606CB84204D1E86840F480
:1011C0008010E86007E0404505D10121201D00F0B6
:1011D00079FE00B106462088400411D5D5F8880074
:1011E000A16C20F040500843C5F88800A06CB0F115
:1011F000805F05D10221201D00F064FE00B106468B
:101200002088000406D555F8880FE16C20F0804056
:1012100008432860304600F005B800000010024086
:101220000070004018BCBDE8E08F00002DE9F047D9
:101230000F46050058D0404E306800F00700B84215
:1012400009D2306820F0070038433060306800F081
:101250000700B84248D12878384CC0072CD06868BD
:10126000032811D0022812D0216898B1490500291D
:101270003ADAA16821F003010143A160FFF7A8FB5E
:10128000804641F2883910E021688901EFE7216842
:101290008903ECE78907EAE7FFF79AFBA0EB08016F
:1012A000494502D90320BDE8F087A068696800F0CD
:1012B0000C00B0EB810FEFD12878800705D5A0682E
:1012C000A96820F0F0000843A060306800F0070033
:1012D000B8420BD9306820F00700384330603068DE
:1012E00000F00700B84201D00120DCE72878400771
:1012F00005D5A068E96820F4E0600843A06028787C
:10130000000706D5A068296920F4605040EAC100B2
:10131000A06000F03FF8A168094AC1F30311515CD5
:1013200001F01F01C8400749086007480068BDE890
:10133000F047FFF77FBD0000002002400010024090
:1013400070350008200000201800002005480649DC
:1013500000688968054AC1F30221515C01F01F0150
:10136000C84070472000002000100240B03500083F
:101370000548064900688968054AC1F3C221515CE5
:1013800001F01F01C84070472000002000100240FB
:10139000B035000870B52549002318468A68CC6826
:1013A00012F00C0204F00306214C4FEA640509D048
:1013B0000C2A05D0042A32D0082A00D1284670BD54
:1013C000012E10D10B681B0704D4D1F89430C3F35D
:1013D000032302E00B68C3F30313164E56F82330C1
:1013E000DAB10C2AEBD1C86800F00300022818D04B
:1013F000032818D01846CA68CB68C2F30212C3F398
:1014000006234343521CB3FBF2F2C868C0F34160A9
:10141000401C4000B2FBF0F070BD184670BD204685
:1014200070BD2046E7E72846E5E7000000100240CF
:101430000024F400803500082DE9F84304006FD043
:10144000FE4DA86800F00C06E86800F0030720785D
:10145000C00664D576B10C2E01D1012F0AD0A06947
:10146000002828687AD040F001002860FFF7B0FA21
:1014700080465DE02868800702D5A0690028DED09C
:10148000216A2868000703D5286800F0F00004E00E
:10149000D5F89400F02202EA1010814216D90846CD
:1014A00000F0A6FD00283BD1286840F00800286025
:1014B0002868216A20F0F000084328606868E16924
:1014C00020F47F4040EA0120686016E0286840F080
:1014D000080028602868216A20F0F000084328608E
:1014E0006868E16920F47F4040EA0120686026B91D
:1014F000206A00F07DFD0028D5D1FFF74BFFA968D9
:10150000CF4AC1F30311515C01F01F01C840CD491E
:101510000860CD480068FFF78DFC00287ED12EE0E2
:10152000CAE000BFFFF754FAA0EB0800022876D803
:1015300028688007F6D5286840F0080028602868E9
:10154000216A20F0F000084328606868E16920F40F
:101550007F4040EA0120686011E0FFE720F00100D1
:101560002860FFF735FA804606E000BFFFF730FA43
:10157000A0EB08000228DAD828688007F6D4207883
:10158000C00740D0082E18D00C2E01D1032F14D044
:101590006068B0F5803F17D0B0F5A02F286817D04D
:1015A00020F480302860286820F48020286060685B
:1015B000E0B1FFF70DFA804614E02868800322D5D9
:1015C0006068002878D01EE0286840F48030EDE79D
:1015D00040F480202860F7E7FFF7FAF9A0EB080055
:1015E0006428A4D828688003F6D50CE0FFF7F0F94A
:1015F000804605E0FFF7ECF9A0EB0800642896D8D8
:1016000028688003F6D4207880073BD5042E11D0BB
:101610000C2E01D1022F0DD0E06801E0B6E1FFE011
:10162000002828681ED040F480702860FFF7D0F9A9
:1016300007460CE0286840050CD5E0680028C1D0BA
:1016400008E000BFFFF7C4F9C01B022893D8286840
:101650004005F7D56868217C20F0F85040EA016029
:1016600068600FE020F480702860FFF7B1F907464A
:1016700005E000BFFFF7ACF9C01B0228B1D828680D
:101680004005F7D42078000729D560690028D5F8EF
:10169000940012D040F00100C5F89400FFF798F9CB
:1016A000074604E0FFF794F9C01B022899D8D5F843
:1016B00094008007F6D512E02BE120F00100C5F878
:1016C0009400FFF785F9074605E000BFFFF780F9B2
:1016D000C01B022885D8D5F894008007F6D420785E
:1016E000400766D5A86D0027C00008D4A86D40F05B
:1016F0008050A865A86D012700F0805000905348E5
:101700000168C90512D40168814641F48071016005
:10171000FFF75EF9804605E0FFF75AF9A0EB0800F5
:1017200002287DD8D9F80000C005F5D5A0680128A9
:1017300016D00528D5F8900017D020F00100C5F884
:101740009000D5F8900020F0040000BFC5F890008C
:10175000A06841F28839C0B1FFF73AF980460FE03E
:10176000D5F8900040F00100F0E740F00400C5F823
:101770009000F5E7FFF72CF9A0EB080149454FD899
:10178000D5F890008007F5D50EE0FFF721F98046E7
:1017900006E000BFFFF71CF9A0EB080149453FD860
:1017A000D5F890008007F5D41FB1A86D20F08050C7
:1017B000A8652078800628D5606A0028D5F89800AA
:1017C00012D040F00100C5F89800FFF701F9074674
:1017D00005E000BFFFF7FCF8C01B022820D8D5F8B1
:1017E00098008007F6D510E020F00100C5F89800B9
:1017F000FFF7EEF8074604E0FFF7EAF8C01B0228FF
:101800000ED8D5F898008007F6D4A06AA8B10228AF
:1018100024D00C2E7DD0286820F08070286000E055
:10182000B3E02868000103D4E86820F00300E86012
:10183000E86807490840E8600CE09FE000100240BB
:1018400070350008200000201800002000700040C3
:10185000FFFFEEFEFFF7BCF8044699E0E868E26A95
:1018600000F00301914226D1216B00F070020901C2
:10187000103991421FD1626B00F4FE41B1EB022F8F
:1018800019D194F8382000F07841B1EBC26F12D131
:10189000A18F00F4C00249084905A1F50011914249
:1018A00009D194F8401000F0C06049084906A1F140
:1018B000007181424BD00C2E6FD0286840016CD44F
:1018C000286820F080702860FFF782F8064604E060
:1018D000FFF77EF8801B022857D828688001F7D4CC
:1018E000F4E90B016FF00F0202EB01110843218AAA
:1018F0005204490802EB4151A26841EA022108431F
:10190000217D4FF07E42490802EB41610843217B73
:1019100000E042E040EAC160E968214A1140084322
:10192000E860286840F080702860E86840F08070C7
:10193000E860FFF74DF8044605E000BFFFF748F800
:10194000001B022821D828688001F7D523E02868E9
:10195000800120D4286840F080702860E86840F05A
:101960008070E860FFF734F8044604E0FFF730F8D1
:10197000001B022809D828688001F7D50BE000BFBA
:10198000FFF726F8001B022802D90320BDE8F883E0
:1019900028688001F4D40020F8E70120F6E7000071
:1019A0008C809D0110B5401EB0F1807F01D30120D5
:1019B00010BD4FF0E02460610F21601700F0CCFDF6
:1019C0000020A06107202061002010BD10B5040098
:1019D00002D0A06F10B107E0012010BD002084F8F4
:1019E0007400204600F026F82420A06720680168D3
:1019F00021F001010160204600F040FC0128ECD0FC
:101A0000606A10B1204600F0A7FB2068416821F40D
:101A1000904141602068816821F02A01816020683E
:101A2000016841F0010101602046BDE8104000F06E
:101A3000F7BB000010B586B0044614216846FEF7D7
:101A4000FEFB1349206888421FD11248816D41F482
:101A500000318165816D01F400310591C16C41F067
:101A60000101C164C06C694600F0010005900C20C2
:101A70000090022001900020029003200390072094
:101A800004904FF09040FEF7C5FE06B010BD000078
:101A900000440040001002402DE9F8430446806FE6
:101AA0001F4616460D4620284FD1CDB1C6B194F839
:101AB0007400012849D0012084F874004FF0000818
:101AC000C4F880802120A067FEF782FFA4F8506050
:101AD0008146A4F85260A068B0F5805F03D004E0AE
:101AE0000120BDE8F883206928B12E465FF000058B
:101AF00084F8748010E00026FAE78021204600F088
:101B0000ADFCB8B9C6B116F8010B21680885B4F868
:101B10005200401EA4F85200B4F852004B464FF059
:101B2000000200970028E8D14FF04001204600F065
:101B300095FC30B10320D4E735F8020BC0F3080060
:101B4000E3E72020A0670020CBE70220C9E7FEE7FB
:101B500001688A69D243920701D400228A62006830
:101B60008169C943C90703D0816941F001018161DD
:101B7000704700002DE9F0410446006890460E468B
:101B80008069C043C00633D40025202720688069BF
:101B9000C043800615D5701CF8D0FEF719FFA0EBE6
:101BA0000800B04201D8002EF0D154F8440F40F0A4
:101BB000200044F804096770A57025700120BDE875
:101BC000F08121681020C8612068C7612046FFF7B6
:101BD000BFFF54F8440B4168064A11404160206839
:101BE00040F0040044F820096777A5772577E5E7FA
:101BF0000020E4E700E800FEF0B50568059C686891
:101C00004FF48066064FC1F3090106EA545641EAD3
:101C100002413E431943B043214308436860F0BD8D
:101C2000FF63FF032DE9F0411D4617460E460446AB
:101C3000DDF8188008E0681C06D0FEF7C9FEA0EBAE
:101C40000800A8420BD855B12068806936EA000028
:101C500012D00020B842EED00020BDE8F08154F848
:101C6000440F40F0200044F8040920206070002058
:101C7000A07020700120F0E70120EBE72DE9F04192
:101C8000002690460F460446202525E04246394668
:101C90002046FFF76FFF78BB20688069C04380064D
:101CA00013D420688169C943490701D4218DC1B982
:101CB000C56154F8440B4168104A1140416044F832
:101CC00020696577A677267716E0FEF781FEA0EB00
:101CD0000800B84208D83FB120688069C043400777
:101CE000D4D40020BDE8F08154F8440F40F0200027
:101CF00044F80409657026700120F3E700E800FE4F
:101D000070B516460D4604460DE03246294620467B
:101D1000FFF730FF08B1012070BDFEF759FE801BB0
:101D2000A84207D835B120688069C0438006ECD44A
:101D3000002070BD54F8440F40F0200044F804091E
:101D4000202060700020A0702070E4E770B5164677
:101D50000D4604460FE0324629462046FFF70AFFAB
:101D600008B1012070BD681C05D0FEF731FE801B54
:101D7000A84207D835B120688069C0438007EAD4FB
:101D8000002070BD54F8440F40F0200044F80409CE
:101D9000202060700020A0702070E2E7F0B587B0CE
:101DA00014216846FEF74BFA1D48C16C41F004014E
:101DB000C164C16C01F004010591C16C41F00101E5
:101DC000C164C16C01F001010591C16C41F00201D7
:101DD000C164C06C4FF0904600F0020005900022F4
:101DE00041213046FEF7EFFD0E4F00220A21384612
:101DF000FEF7E9FD4120009001250024CDE90154C2
:101E0000694630460394FEF705FD0A200090CDE9AF
:101E10000154694638460394FEF7FCFC07B0F0BD58
:101E20000010024000040048134810B51149016039
:101E30001249416000210122C0E9021201614161A1
:101E40008161C1610162FEF723FE08B1FEF7CEFC9D
:101E500000210948FEF7C2FD08B1FEF7C7FC0021CA
:101E60000548FEF7E6FD002803D0BDE81040FEF768
:101E7000BDBC10BD0054004028000020EC9C901018
:101E80000D4810B50B4901604FF416514160002117
:101E900081600C22C160C0E904128161C1610162EC
:101EA0004162FFF793FD002803D0BDE81040FEF724
:101EB0009DBC10BD0044004074000020FEE7FEE71A
:101EC000704700002DE9F041444C05468846E06823
:101ED0000026810728680DD0E16801F003018142E6
:101EE00016D1A8B1E0686968C0F30210401C8842AE
:101EF0000ED120E0012804D0022805D0032807D104
:101F000008E02168890701E021684905002907DB0D
:101F100001265FE02168890302D421684903F5E7BF
:101F2000E1686A686FF00F0321F0730103EB02129E
:101F300011430143E160206820F080602060FEF7DB
:101F400047FD074605E000BFFEF742FDC01B022823
:101F500037D820680001F7D4B8F1000F18D0B8F1D5
:101F6000010F1DD0287D4FF07E41400801EB4060FD
:101F7000A96840EA01202169194A114008432061FB
:101F8000206840F080602060FEF722FD07461AE0DE
:101F9000A868297B000240EAC1602169114AECE788
:101FA000288A1149400801EB4050A96840EA012005
:101FB00021690E4AE1E700BFFEF70AFDC01B0228B7
:101FC00001D9032606E020680001F5D52069A9693A
:101FD000084320613046BDE8F08100000010024057
:101FE000FF80FFF9FF80FF070000E0FFFF809FFFF9
:101FF000F8B51C4D06460024A86DC00002D5FEF7BA
:10200000B7FF0DE0A86D40F08050A865A86D00F006
:1020100080500090FEF7ACFFA96D21F08051A965BA
:10202000B0F5007F04D0802E07D94FF003040AE0FA
:10203000802E08D9A02E01D804E001D1022402E0AC
:10204000702E00D101240848016821F007012143C6
:102050000160006800F00700A04201D00120F8BD37
:102060000020F8BD00100240002002407047FEF73B
:10207000C9BE000010B5ACB044216846FEF7DFF8D9
:10208000142126A8FEF7DBF8542111A8FEF7D7F893
:10209000FEF776FF204850F8901F21F018010160EC
:1020A0001420009001200290002460210690CDE9C8
:1020B00007410221CDE90A100C9028200D9007203D
:1020C000CDE90E0168461091FFF7B6F908B172B676
:1020D000FEE70F2026900320CDE927042994042150
:1020E00026A82A94FFF7A2F808B172B6FEE74220AC
:1020F00011901A941C9411A8FEF752FF08B172B601
:10210000FEE74FF40070FEF7FFFE08B172B6FEE77F
:10211000FEF73EFF2CB010BD001002400B480168D6
:1021200041F4700101600A48016841F00101016059
:10213000002181600268074B1A4002608214C2606D
:10214000026822F4802202608161704788ED00E01D
:1021500000100240FFFFF6EA90F82410C90706D0ED
:1021600001684A68836A22F400321A434A6090F890
:102170002410890706D501684A68C36A22F48032B0
:102180001A434A6090F82410490706D501684A6846
:10219000036B22F480221A434A6090F82410090746
:1021A00006D501684A68436B22F400421A434A602C
:1021B00090F82410C90606D501688A68836B22F45A
:1021C00080521A438A6090F82410890606D5016867
:1021D0008A68C36B22F400521A438A6090F8241074
:1021E000490611D501684A68036C22F480121A432B
:1021F0004A60016CB1F5801F06D101684A68436CE2
:1022000022F4C0021A434A6090F82410090606D549
:1022100001684A68806C22F4002202434A607047D9
:10222000F8B500260446C0F88060FEF7D1FB0546ED
:10223000206800686FF07E47000708D52B46002213
:102240004FF400112046009700F008F960B92068AB
:10225000006840070AD52B4600224FF48001204633
:10226000009700F0FBF808B10320F8BD2020A0671C
:10227000E067266684F874600020F8BD2DE9F0411F
:10228000044600682269A168E66911436269002575
:10229000324311436A4B02686A4E32400A4302607D
:1022A00020684168E26821F440511143416021688F
:1022B000A069994201D0226A10438A6822F43062F0
:1022C00002438A606049276860488F420DD1D0F888
:1022D000880010F0030006D0012838D0022834D03E
:1022E000032821D135E001211FE059498F420BD14C
:1022F000D0F8880010F00C0025D0042827D008283A
:1023000023D00C2810D124E09F420DD1D0F88800B2
:1023100010F4406017D0B0F5806F18D0B0F5006FA2
:1023200013D0B0F5406F14D010214A4800264FF466
:1023300000429F422DD171B1022912D004290DD043
:10234000082971D123E00021EFE70221EDE7042104
:10235000EBE70821E9E7FEF7F9FF01E0FFF71AF8DC
:10236000E8B3626802EB420181425DD8B0EB023F04
:102370005AD8010E03025008181871410023FDF7C6
:1023800023FF354AA0F54071914251D94CE01046E7
:10239000E7E7E3694FF6EF77934229D1092943D262
:1023A000DFE801F005080E420B4242422400FEF72E
:1023B000CDFF04E0FEF7DCFF01E0FEF7EBFF70B1BC
:1023C0004100606801EB5001B1FBF0F080B2A0F178
:1023D0001001B94228D84FF6F071014000E029E021
:1023E000C0F3420001432068C16023E01046E7E7E4
:1023F000092919D2DFE801F005080E180B18181882
:102400001A00FEF7A3FF04E0FEF7B2FF01E0FEF7BB
:10241000C1FF78B1616800EB5100B0FBF1F080B210
:10242000A0F11001B94203D9012503E01046F1E7FC
:102430002168C86066662846A666BDE8F08100008F
:1024400000800040F369FFEF0038014000100240B7
:10245000004400400024F400FFFC0F002DE9F04789
:102460009A4617460E4604464FF000094FF02008E2
:10247000089D39E0681C37D0FEF7AAFAA0EB0A00E5
:10248000A84222D80DB32068016849072CD5C0693D
:10249000C043000528D421684FF40060086220681A
:1024A000016821F4D07101602068816821F0010188
:1024B0008160C4F87880C4F87C80C4F8808000BF54
:1024C00084F874900320BDE8F0872068016821F447
:1024D000D07101602068816821F001018160C4F839
:1024E0007880C4F87C80EBE72068C06936EA000099
:1024F00004D00020B842BDD00020E4E70120F9E775
:10250000FEE700000FB4054B10B503A9044A02987A
:1025100000F008F910BC5DF814FB0000353300082A
:10252000240000200FB47CB50C0009AD01D0611E61
:1025300000E00021CDE90001064B6A4629460898D3
:1025400000F0F0F8002C02D0009A002111707CBC41
:102550005DF814FB312E00080907090E002804DB82
:1025600000F1E02080F80014704700F00F0000F147
:10257000E02080F8141D704702E008C8121F08C14F
:10258000002AFAD170477047002001E001C1121FF4
:10259000002AFBD1704700002DE9FF5F82B00021C7
:1025A000DDE90430020DDDF840B0034318D044F6F5
:1025B0001050A2F2FF3242431514119801281FD087
:1025C000A5EB0B00401C5FEA000A4FF000064E4FDF
:1025D000DFF83891B046504615D5CAF1000413E033
:1025E000119801244AA3012801D16FEA0B01029836
:1025F000119AC0E90031C0E9024206B000F08EB87D
:10260000CBF10000DFE704460021404A491842EBC5
:102610000450CDE9001012E0E00707D032463B46F7
:1026200040464946FDF716FE8046894632463B46FF
:1026300010461946FDF70EFE06460F466410002CA4
:10264000EAD1DDE90401DDE90023BAF1000F06DA81
:10265000FDF700FE42464B46FDF7FCFD05E0FDF7A9
:102660006EFE42464B46FDF76AFE04460E460022C9
:10267000284BFDF723FF03D84FF0FF30014607E05A
:102680000022254B20463146FDF7C2FFFEF76FF8CA
:10269000102409E0002C0ADB0A220023FDF794FD38
:1026A000039B30321A55641E50EA0102F2D1641CB9
:1026B000039AC4F111031444119A012A03D0012290
:1026C00008430DD10AE0084304D000204FF0110B5D
:1026D000119072E7A3EB0B056D1E0DE05B4504DD69
:1026E0004FF0000205F1010504E003DA4FF00002AB
:1026F000A5F10105002AECD002981199C0E9023138
:10270000C0E9004579E70000000014400000F03FF8
:10271000300000000000F0430000E03F30BCBDE8A6
:10272000C09F00002DE9FF4F95B09A4688460646A7
:102730000025EEE1252877D100242746F94A01211A
:10274000039400E0044316F8013F203B01FA03F034
:102750001042F7D130782A2811D06FF02F0330784B
:10276000A0F13002092A16D8039A44F0020402EBC1
:10277000820203EB42021044761C0390EFE758F804
:10278000042B0392002A03DA504244F400540390CD
:1027900044F00204761C30782E2816D116F8010F6A
:1027A00044F004042A280DD06FF02F023078A0F1F5
:1027B0003003092B09D807EB870302EB4303C71843
:1027C000761CF3E758F8047B761C30786C280FD021
:1027D00006DC4C2817D068280DD06A2814D104E0F4
:1027E000742810D07A280FD10DE044F400140AE0C8
:1027F00044F4801401E044F440147278824202D11F
:1028000004F58014761C761C307866280BD013DC17
:10281000582877D009DC002875D04528F6D04628FE
:10282000F4D047281AD193E118E0632835D0642802
:1028300079D0652812D18BE1702873D008DC672825
:10284000F1D069286FD06E280DD06F2806D1ACE08A
:1028500073282CD0752874D0782853D052461799F5
:1028600090476D1C54E1C4F30250022809D003289C
:102870000DD0D8F8001004280DD00D6008F1040820
:1028800046E1D8F80010EA17C1E90052F6E7D8F897
:1028900000100D80F2E70D70F0E718F8041B8DF8BA
:1028A000001000208DF80100EB46012003E058F8ED
:1028B00004BB4FF0FF3061074FF0000102D40DE080
:1028C00009F101018946B9420FDA8145F8DB1BF8AD
:1028D00009100029F4D108E009F10101894681427B
:1028E000FADB1BF809100029F6D103985346A0EB38
:1028F000090721463846179A00F083FA284400EB6E
:10290000090507E044E008E10DE01BF8010B524621
:1029100017999047B9F10109F7D253462146384635
:10292000179AF2E039E00A21C4F302524FF0000B8B
:102930000091022A06D058F8040BC117032A09D0C7
:102940000AE023E008F1070020F00702F2E80201A4
:10295000904605E000B2C117042A01D140B2C11768
:10296000002906DA0A460021404261EB02012D22CD
:1029700002E0220504D52B228DF80420012203E079
:10298000E20701D02022F7E7914657E00A2100E054
:1029900010214FF0000B00910BE010214FF0000BC5
:1029A00044F004040827009103E008204FF0000BD6
:1029B0000090C4F30252022A05D058F8040B0021FB
:1029C000032A08D008E008F1070020F00702F2E827
:1029D0000201904603E080B2042A00D1C0B24FF059
:1029E000000922072AD53278702A07D0DDF800C006
:1029F0008CF0100C5CEA0B0C05D00EE040228DF838
:102A00000420012208E050EA010306D030238DF8AB
:102A100004308DF8052002229146009B83F00803C4
:102A200053EA0B030AD150EA010201D1620705D52E
:102A300030228DF804204FF001097F1E3278582A89
:102A400004D039A20C920CAA02920BE03BA2F9E747
:102A50005B46009AFDF7B8FB0C9B9B5C029A521EEA
:102A60000292137050EA0102F2D1029804A9081AE6
:102A700000F1200B600702D524F4803400E0012728
:102A80005F4502DDA7EB0B0000E0002000EB0B012F
:102A9000009003984944401A0390E00306D453463B
:102AA0002146179A039800F0ACF90544002706E088
:102AB00001A85246C05D179990476D1C7F1C4F4579
:102AC000F6DBE0030CD553462146179A039800F035
:102AD00098F9054404E030205246179990476D1C40
:102AE0000099481E00900029F5DC08E00298029940
:102AF00052460078491C0291179990476D1CBBF112
:102B00000001ABF1010BF1DC5BE100F068F9054479
:102B1000761C307800287FF40DAE19B0284600F0FE
:102B20005BB90000092801003031323334353637C3
:102B30003839616263646566000000003031323309
:102B400034353637383941424344454600000000A9
:102B5000600700D4062708F1070020F00700F0E81E
:102B60000223804603F0004C5FEA0C0001D097A0DE
:102B700009E0200501D596A005E0E00701D095A069
:102B800001E0AFF24C001390307823F00043652849
:102B90000CD006DC452809D046281DD047287FD117
:102BA0003BE0662818D067287AD136E00021112F43
:102BB00001DB112000E0781CCDE9000104A90CA87C
:102BC000FFF7EAFCDDE90D010C9A4FF0000B07F16D
:102BD0000109109200914EE04FF000400097CDE9BE
:102BE000011004A90CA8FFF7D7FCDDE90D020C9B2E
:102BF0000F994FF0000B91461093009211B9791C78
:102C000000EB0109B7EB090003D4C0F1FF3B07F16A
:102C10000109A9EB0700019042E0012F00DA01272A
:102C20000021112F01DD112000E03846CDE900011F
:102C300004A90CA8FFF7B0FCDDE90D010C9A009186
:102C40004FF0000BB946109221070FD4009A4A4565
:102C500003DA914601E0A9F10109B9F1010F05DD9F
:102C6000109AA9F10101515C3029F4D0B84202DA7E
:102C700010F1040F03DA0121CDE9011010E0002862
:102C800003DC8344A9EB000102E0411C494500DD5F
:102C90008946A0EB0B00401C01904FF000400290D1
:102CA000200705D40198484502DB4FF0FF30019022
:102CB00000208DF84B0002980DF14B07B0F1004F4A
:102CC00025D002200C902B200D90029800280CDAC1
:102CD000404202902D200D9007E00A210298FDF756
:102CE00005FC3031029007F8011D0C99481E0C902C
:102CF0000029F2DC02980028EFD1791E0D980870A7
:102D0000307800F0200040F0450007F8020D11A8CF
:102D1000C01BC01D02901398007800B1012000EB89
:102D20000901019801EBE071029801440398401AEF
:102D3000401E0390E00306D453462146179A039899
:102D400000F05FF805441398007818B152461799BF
:102D500090476D1CE00323D553462146179A0398EC
:102D600000F04FF805441BE0BBF1000F07DB0098B3
:102D7000584504DD1098179910F80B0001E01799D9
:102D800030205246904701980BF1010B401E05F18F
:102D90000105019004D12E205246179990476D1CD1
:102DA000B9F10001A9F10109DEDC05E017F8010B1A
:102DB0005246179990476D1C0299481E02900029AF
:102DC000F4DC53462146179A03989EE62D00000036
:102DD0002B0000002000000030BCBDE8C08F2DE9B2
:102DE000F041044600251E461746880404D405E039
:102DF00039462020B0476D1C641EF9D52846BDE831
:102E0000F0812DE9F041044600251E469046C80396
:102E100001D5302700E02027880404D505E041468D
:102E20003846B0476D1C641EF9D52846BDE8F081D0
:102E30004A68002A06D00A68531C0B601070486864
:102E4000401E48607047FDF7D3BC000030B5044613
:102E50002DED028B8BB0002000F0B4F8394D9FEDC2
:102E60003A8B202C11D006226946204600F076F8D5
:102E70000E2C11D0082C11D0282C0FD02E2C0DD0B8
:102E8000142C0DD01A2C0DD011E0082269462046D2
:102E900000F064F8288906E0E88804E0288802E069
:102EA000688800E0A888FDF7CAFA41EC180B2021D9
:102EB00002A8FDF7C4F9BDF90000202C23D0FDF7CE
:102EC000ADFA53EC182BFDF73AFACDE90401BDF940
:102ED0000200FDF7A3FA53EC182BFDF730FACDE909
:102EE0000601BDF9040000BFFDF798FA53EC182B5A
:102EF000FDF725FACDE9080102A890EC080B0BB00C
:102F0000BDEC028B30BDFDF789FA53EC182BFDF7B1
:102F100016FACDE90201BDF90200FDF77FFA53EC84
:102F2000182BFDF70CFACDE90401BDF90400FDF7FB
:102F300075FA53EC182BFDF702FACDE90601BDF93D
:102F40000600D1E708000020000000000000F03F6C
:102F50001A20FFF77BBF2020FFF778BFF7B582B0BC
:102F6000094D642416460F460094012302AA5021FD
:102F70006868FDF77FFE009433463A465021686842
:102F8000FDF7E2FD05B0F0BD0000002010B52021E6
:102F90003F2000F059F8BDE810404FF42F70FFF7C4
:102FA00052BF10B5044601463D2000F04DF824B153
:102FB0000720BDE81040FFF746BF1320F9E70C20BB
:102FC000FFF7EFBF0146072000F03EB808B5FFF756
:102FD000DDFF00208DF8000001226946FFF7BEFFEB
:102FE0009DF80010A02902D008A0FFF78BFA00205E
:102FF000FFF7E8FF00213F2000F026F80020FFF750
:10300000D0FF0A20FFF71FFF08BD000043616E27B5
:10301000742066696E6420424E4F3035352C20692D
:10302000643A203078253032782E20506C656173F8
:103030006520636865636B20796F757220776972AC
:10304000696E672E0D0A00001CB58DF80400354C22
:103050008DF805100A200090022301AA5021606813
:10306000FDF708FE01004ED0012918D0032918D021
:10307000022918D02CA0FFF745FA6068FDF702FD81
:10308000002840D0012812D0022812D0042812D0E3
:10309000082812D0102812D0202812D014E028A01E
:1030A00002E030A000E039A0FFF72CFAE5E740A0ED
:1030B00008E045A006E04AA004E04EA002E052A0CD
:1030C00000E056A0FFF71EFA6068FDF7DDFCA8B12E
:1030D000202813D0242813D0212815D0222815D039
:1030E000282815D0292815D02A2815D0602815D0D1
:1030F000A02815D0E02806D14EA002E053A000E0A1
:1031000058A0FFF7FFF91CBD5CA0FAE761A0F8E743
:1031100066A0F6E76BA0F4E772A0F2E779A0F0E70B
:103120007EA0EEE700000020556E6B6E6F776E207C
:103130007374617475732064617461202564000088
:1031400048414C5F4932435F4D61737465725F540F
:1031500072616E736D69742048414C5F4552524FE5
:10316000520D0A0048414C5F4932435F4D61737410
:1031700065725F5472616E736D69742048414C5F73
:1031800054494D454F55540D0A00000048414C5FCD
:103190004932435F4D61737465725F5472616E733F
:1031A0006D69742048414C5F425553590D0A000027
:1031B00048414C5F4932435F4552524F525F42454E
:1031C00052520D0A0000000048414C5F4932435FF3
:1031D0004552524F525F41524C4F0D0A00000000C1
:1031E00048414C5F4932435F4552524F525F41461E
:1031F0000D0A000048414C5F4932435F4552524F2F
:10320000525F4F56520D0A0048414C5F4932435FAE
:103210004552524F525F444D410D0A0048414C5FA8
:103220004932435F4552524F525F54494D454F55C5
:10323000540D0A0048414C5F4932435F5354415496
:10324000455F4552524F520D0A00000048414C5F05
:103250004932435F53544154455F52455345540DE1
:103260000A00000048414C5F4932435F53544154C7
:10327000455F425553590D0A0000000048414C5F1C
:103280004932435F53544154455F425553595F544B
:10329000580D0A0048414C5F4932435F5354415432
:1032A000455F425553595F52580D0A0048414C5FE3
:1032B0004932435F53544154455F4C495354454E42
:1032C0000D0A000048414C5F4932435F535441545A
:1032D000455F425553595F54585F4C495354454ECE
:1032E0000D0A000048414C5F4932435F535441543A
:1032F000455F425553595F52585F4C495354454EB0
:103300000D0A000048414C5F4932435F5354415419
:10331000455F41424F52540D0A00000048414C5F46
:103320004932435F53544154455F54494D454F55CD
:10333000540D0A0038B504468DF800006946032094
:10334000ABBE204638BD00002DED0A8BA8B0FDF7BE
:1033500061FDFEF78FFEFEF721FDFEF765FDFEF72E
:103360008FFD674965484860FFF730FEFFF727FE8D
:103370009FED64BB654D9FED66CB4FF090469FED92
:1033800066AB4FF0FF3400BFFFF7E2FDB0EE439AAB
:10339000F0EE639AB0EE428AF0EE628A8DED049B05
:1033A0008DED028B8DED001B5DA2402108A8FFF77B
:1033B000B9F82346402208A96348FEF76DFB23466F
:1033C00002224F496048FEF767FB53EC1B2B51EC80
:1033D000180BFDF773F815D201213046FDF7EBFA13
:1033E000B0EE480AF0EE680A53EC1A2B51EC100BC1
:1033F000FCF730FFFDF730F8FDF7FAF90121304610
:10340000FDF7D9FAB0EE480AF0EE680A53EC1C2B2F
:1034100051EC100BFDF73AF811D208212846FDF7C0
:10342000CAFA53EC1A2B51EC180BFCF713FFFDF7FB
:1034300013F8FDF7DDF908212846FDF7BCFAB0EED8
:103440004B0AF0EE6B0A53EC102BB0EE490AF0EE8B
:10345000690A51EC100BFDF731F815D2022128460C
:10346000FDF7A9FAB0EE490AF0EE690A53EC1A2BFF
:1034700051EC100BFCF7EEFEFCF7EEFFFDF7B8F990
:1034800002212846FDF797FAB0EE4C0AF0EE6C0ADE
:1034900053EC102BB0EE490AF0EE690A51EC100B18
:1034A000FCF7F4FF11D240213046FDF784FA53ECCB
:1034B0001A2B51EC190BFCF7CDFEFCF7CDFFFDF7F5
:1034C00097F940213046FDF776FAFFF744FD8DEC81
:1034D000080B1EA2402118A8FFF724F8234640221B
:1034E00018A91948FEF7D8FA2346022204491648BB
:1034F000FEF7D2FA0A20FDF77BF945E72800002005
:1035000000000020000000000000144000040048FB
:1035100000000000000014C0000000000000004097
:1035200048656164696E673A20252E326620526FC5
:103530006C6C3A20252E32662050697463683A20FC
:10354000252E32660D0A000074000020573A20250F
:103550002E326620583A20252E326620593A2025F0
:103560002E3266205A3A20252E32660D0A000000BF
:103570000000000000000000010203040607080923
:10358000A0860100400D0300801A060000350C00E3
:1035900040420F0080841E0000093D0000127A00A6
:1035A0000024F40000366E010048E801006CDC02E3
:1035B0000000000001020304D835000800000020CC
:1035C00028000000782500080036000828000020A8
:1035D000D0040000882500080D0A0000000000004B
:1035E0006400100010001000004000000100000006
:1035F000100000000000000000093D000000000075
:040000050800018D61
:00000001FF
