:020000040800F2
:1000000020050020A5010008CF1B0008591B00088F
:10001000CD1B000831080008412300080000000043
:100020000000000000000000000000007D1D00082E
:100030003308000800000000D11B00087F1D0008E5
:10004000BF010008BF010008BF010008BF01000890
:10005000BF010008BF010008BF010008BF01000880
:10006000BF010008BF010008BF010008BF01000870
:10007000BF010008BF010008BF010008BF01000860
:10008000BF010008BF010008BF010008BF01000850
:10009000BF010008BF010008BF010008BF01000840
:1000A000BF010008BF010008BF010008BF01000830
:1000B000BF0100080000000000000000BF010008B0
:1000C000BF0100080000000000000000BF010008A0
:1000D0000000000001230008BF010008000000002C
:1000E000BF010008BF010008000000000000000080
:1000F0000000000000000000000000000000000000
:10010000000000000000000000000000BF01000827
:100110000000000000000000BF010008BF0100084F
:10012000BF010008BF010008BF010008BF010008AF
:10013000BF010008000000000000000000000000F7
:10014000BF010008BF010008BF010008BF0100088F
:10015000BF010008BF010008BF010008BF0100087F
:10016000BF010008BF010008BF0100080000000037
:10017000BF010008BF0100080000000000000000EF
:10018000BF010008BF010008BF010008DFF810D060
:1001900000F086F90048004781230008AFF3008093
:1001A000200500200648804706480047FEE7FEE796
:1001B000FEE7FEE7FEE7FEE7FEE7FEE7FEE7FEE717
:1001C0002D1E00088D0100082DE9F05F0546002076
:1001D00092469B4688460646814640241BE02846B8
:1001E00041464746224600F009F953465A46C01A8E
:1001F000914110D311461846224600F0F0F82D1A0E
:1002000067EB01084F4622460120002100F0E7F885
:1002100017EB00094E41201EA4F10104DFDC484623
:1002200031462A46434600F000B830BCBDE8C09FC6
:10023000D2B201E000F8012B491EFBD27047002228
:10024000F6E710B513460A4604461946FFF7F0FFD5
:10025000204610BD0FB400B58DB010A909900B90C9
:1002600000914FF0FF300A9000200C900548069056
:10027000054807906A4609A80F9900F0E3F80DB009
:100280005DF814FB610400087F0400082DE9FF5F9E
:100290001D464FF0FF3BD5E9014691465F464FF0C2
:1002A0000008A9697F1C01988847296A8246884707
:1002B0000028F6D1BAF1FF3F0CD024F4C064002E20
:1002C00019DD600614D5BAF12B0F09D0BAF12D0F44
:1002D0000ED103E0584604B000F07EB844F48064C8
:1002E000A9697F1C01988847761E8246002E02DD90
:1002F000BAF1300F03D0B9F1000F26D032E0A9696E
:10030000761E44F400747F1C019888478246002EB4
:1003100005DDBAF1780F06D0BAF1580F03D0B9F164
:10032000000F10D01EE0B9F1000F02D0B9F1100F8C
:1003300018D1A969761E24F400747F1C019888479F
:100340008246102002E0082000E00A20814609E0F1
:1003500008FB0908A969761E44F400747F1C019803
:1003600088478246002E05DD4946504600F056F883
:100370000028EDDAE96901988847A00502D46FF0FA
:100380000100A8E7E00725D1600613D5600502D576
:10039000C8F1000000E0404629680A1D2A6009688B
:1003A000220501D5087015E0220701D5088011E06B
:1003B00008600FE02868011D29600068210502D54A
:1003C00080F8008006E0210702D5A0F8008001E057
:1003D000C0F8008038467EE730BCBDE8C09F202AC8
:1003E00004DB203A00FA02F1002070479140C2F18C
:1003F000200320FA03F3194390407047202A04DBBE
:10040000203A21FA02F00021704721FA02F3D0408D
:10041000C2F1200291400843194670473A2800D2A1
:10042000303820F02002412A01D3A2F1370088425F
:1004300001D34FF0FF307047026811441378016018
:1004400018467047D1600449516104491162002186
:100450001161114600F03CB839040008C5040008D9
:10046000426842B1016811F8013B23B1521EC0E954
:100470000012184670470121C160881E704742680B
:100480005AB1C368016843B983688B4205D0491EDD
:10049000521CC0E90012002070474FF0FF30704737
:1004A000064C074D06E0E06840F0010394E80700C1
:1004B00098471034AC42F6D3FFF76CFE6424000872
:1004C00084240008C0B24FF4F05100F09DB9000040
:1004D0002DE9F34F8BB04FF0000801F10C000C46F2
:1004E0004FF0010B46460DF1080A019062690121A7
:1004F00001989047051E2DD0252D2CD0216A8847C4
:10050000C0B16269012101989047216A884700289B
:10051000F7D1411E62690198904700E0761CA169FD
:100520000B988847216A88470028F7D1E1690B9822
:100530008847DBE7A1690B9888470746A84201D1A5
:10054000761CD3E7E1690B9888477F1C02D1B8F18C
:10055000000F6FD047E1002762693D463946019898
:1005600090472A2804D1626901210198904701250A
:10057000DFF888926269012101989047A0F130016B
:100580000A290AD24F45E5DC07EB870100EB41075A
:10059000303FDFD445F01005ECE7E90601D46FF0F9
:1005A00000476C280AD04C2814D0682815D06A2837
:1005B0000DD074281CD07A281AD01DE06269012160
:1005C000019890476C2802D045F0040514E045F0EE
:1005D00002050DE045F020050AE06269012101985D
:1005E0009047682802D045F0080505E045F400650D
:1005F0006269012101989047C4E9015765283DD0FF
:1006000019DC58287AD00CDC452837D004DC2528A2
:1006100026D0412831D131E046282FD047282CD18F
:100620002CE05B2877D0612828D063287CD0642810
:1006300023D15AE0D1E06F2848D008DC66281DD0CD
:1006400067281BD0692821D06E2816D127E0702892
:1006500045D0732868D0752847D078280DD14DE053
:10066000A1690B988847054625283FF469AFE169E1
:100670000B9888476D1C3FF46AAFB4E023466A4686
:100680006FF001000B99AFF300809FE045F0400050
:100690006060A80723464FF0000236D43EE0E8072A
:1006A0007FF447AF2068011D21600068290501D54E
:1006B00006701BE7290701D5068017E7A90703D5B0
:1006C000F117C0E9006111E706600FE745F040004F
:1006D0006060A80723464FF0080216D41EE040F6DB
:1006E0000E0125EA0100606016E045F04000606000
:1006F000A80723464FF00A0207D40FE045F0400058
:100700006060A80708D5234610226FF001000B99FE
:10071000AFF300805AE007E0234610226FF001009B
:100720000B99FFF7B3FD51E04FF000094F464B46E0
:10073000632802D05B2807D041E02079C00601D4AD
:100740000120A06001273AE06269012101989047E9
:100750005E2805D14FF0010962694946019890472A
:10076000216939B900210A46534643F82120491C22
:100770000829FADBB0B3216969B9C11700EBD1626E
:1007800053110AEB830122F01F02821A01200B6829
:10079000904003430B6062690121019890475D28F6
:1007A000E8D1B9F1000F09D00020514651F82020BE
:1007B000D24341F82020401C0828F7DB02AB224638
:1007C00000976FF001000B99AFF3008000280CDA5E
:1007D000401C08D1BBF1000F05D04FF0FF300DB029
:1007E00000F00EB8FFE74046F9E7E90701D108F14C
:1007F000010806444FF0000B78E60000CCCCCC0C8E
:1008000030BCBDE8C08F00007F2801D9002208E07D
:10081000064A02EB5002C007127800D1120902F01A
:100820000F02012090400840704700002424000877
:10083000FEE7704710B590F825100024022903D078
:100840000421C16301241AE001680A6822F00E0243
:100850000A6001680A6822F001020A6090F84410F8
:10086000036C01F01C02012101FA02F25A6080F8C7
:100870002510002180F82410816B01B188472046A3
:1008800010BD00002DE9FC4FDFF880A100230125F9
:100890000AF1040B03244FF00F0C0BF1040EAEE031
:1008A00005FA03F632406FD04F68012F05D0022FB2
:1008B00003D0112F01D0122F17D1D0F808905F006C
:1008C00004FA07F829EA08090097D1F80C8008FA19
:1008D00007F848EA0908C0F808804768B7430E7966
:1008E000C6F300169E403E434660C6684FEA430882
:1008F00004FA08F7BE4301978F6807FA08F73743F1
:10090000C7604E68022E01D0122E13D1DE0800EB14
:1009100086060096366A5F07FF0E0CFA07F926EA8C
:100920000906D1F8109009FA07F949EA0609009E6C
:10093000C6F820900768019EB7430E7906F00306BB
:1009400006FA08F63E4306604E68F60056D5304E6D
:10095000376E47F001073766366E23F0030706F05F
:10096000010600962B4E3E44B146B6689F074FEAFB
:1009700017780CFA08F7BE43B0F1904F05D0264F18
:10098000B84204D1012708E038E0002705E0234FF2
:10099000B84201D1022700E0072707FA08F73743DA
:1009A000C9F80870DAF800605746D1F80480964319
:1009B0005FEAC83800D516433E60DBF800605F464A
:1009C000D1F8048096435FEA883800D516433E602C
:1009D000DEF800607746D1F8048096435FEAC828C5
:1009E00000D516433E60094F0C373E68D1F80480AD
:1009F00096435FEA882800D516433E605B1C0A6870
:100A000032FA03F67FF44CAF00F00AB8000401405C
:100A100000100240000001400004004800080048A7
:100A20001CBCBDE8E08F00000148806870470000F2
:100A30000C000020024881680278114481607047F0
:100A40000C00002010B50024032000F071F80020F5
:100A500000F008F808B1012401E000F025F8204674
:100A600010BD000070B50E4E05460024307898B1D8
:100A70004FF47A71B1FBF0F00A490968B1FBF0F06C
:100A800000F0B6FD40B9102D06D200222946501EB6
:100A900000F02EF8756000E00124204670BD0000D3
:100AA0000C00002018000020094808B5016E41F034
:100AB00001010166016E01F001010091816D41F0BB
:100AC00080518165806D00F08050009008BD00006D
:100AD00000100240002809DB00F01F0201219140B4
:100AE0004009800000F1E020C0F8001170470000CC
:100AF000F0B40E4B1B680C46C3F30223C3F1070589
:100B0000042D00D90425191D072901D2002300E076
:100B1000DB1E012606FA05F1491E214099409E4040
:100B2000761E16403143F0BC01F00BBC0CED00E02A
:100B3000064900F0070208684FF6FF03184040EA34
:100B40000220034A10430860704700000CED00E0EB
:100B50000000FA051649B0F5007F0868C0F341208F
:100B600009D0022805D0086820F4C06040F48060F5
:100B70000860002070470128FBD0086820F4C0609E
:100B800040F4007008600B483222006850430A4A63
:100B9000B0FBF2F0401C00E0401E4A69520501D54E
:100BA0000028F9D148694005E3D5032070470000CB
:100BB000007000401800002040420F00024800680A
:100BC00000F4C060704700000070004002480168F7
:100BD00041F4807101607047007000400248016874
:100BE00041F0040101607047001002402DE9F84F08
:100BF0000446002700889C4D3E46000515D5E06B55
:100C000060B1B0F5000F04D0B0F5400F2BD0012734
:100C10000AE0E86840F48030E86024E00021201D0C
:100C200000F0D8FF07001ED03E462068800338D56C
:100C3000A86D4FF00008C00009D4A86D40F08050A6
:100C4000A865A86D4FF0010800F080500090DFF813
:100C50001CA2DAF8001041F48071CAF80010FFF706
:100C6000E3FE814610E0D5F88800E16B20F44000F7
:100C70000843C5F88800D8E7FFF7D6FEA0EB0900C7
:100C8000022801D9032704E0DAF80000C005F3D5F3
:100C9000EFB33E46B8F1000F03D0A86D20F08050AE
:100CA000A8652078C00707D0D5F88800216A20F011
:100CB00003000843C5F888002078800707D5D5F8D9
:100CC0008800616A20F00C000843C5F8880020788D
:100CD000800607D5D5F88800A16A20F44060084353
:100CE000C5F888002088800507D5D5F88800616B95
:100CF00020F440200843C5F888002088400509D525
:100D0000D5F88800A16B20F44010084300E02EE0E5
:100D1000C5F888002078400607D5D5F88800E16A34
:100D200020F440500843C5F888002088C00507D546
:100D3000D5F88800216B20F440300843C5F88800BE
:100D400020884FF0006780044FF080684ED5D5F8BA
:100D50008800216C20F040600843C5F88800206CB2
:100D6000B8423BD1E86840F48010E8603EE0D5F836
:100D7000900010F4407014D0216D814211D0D5F84C
:100D80009000D5F8901020F4407041F48031C5F8FF
:100D90009010D5F8901021F48031C5F89010C5F866
:100DA0009000C00711D0FFF73FFE074641F2883997
:100DB00007E000BFFFF738FEC11B494501D90326F4
:100DC00068E7D5F890008007F4D5D5F89000216D3C
:100DD00020F440700843C5F890005BE7404505D11A
:100DE0000121201D00F0F6FE00B1064620684003F8
:100DF00017D5D5F88800616C20F040600843C5F82D
:100E00008800606CB84204D1E86840F48010E86063
:100E100007E0404505D10121201D00F0DBFE00B1B7
:100E200006462088400411D5D5F88800A16C20F032
:100E300040500843C5F88800A06CB0F1805F05D130
:100E40000221201D00F0C6FE00B1064620880004E5
:100E500006D555F8880FE16C20F0804008432860E3
:100E6000304600F005B8000000100240007000405D
:100E700018BCBDE8E08F00002DE9F0470F460500E3
:100E800058D0404E306800F00700B84209D23068B0
:100E900020F0070038433060306800F00700B842A7
:100EA00048D12878384CC0072CD06868032811D066
:100EB000022812D0216898B1490500293ADAA168C0
:100EC00021F003010143A160FFF7AEFD804641F22E
:100ED000883910E021688901EFE721688903ECE790
:100EE0008907EAE7FFF7A0FDA0EB0801494502D911
:100EF0000320BDE8F087A068696800F00C00B0EB43
:100F0000810FEFD12878800705D5A068A96820F067
:100F1000F0000843A060306800F00700B8420BD929
:100F2000306820F0070038433060306800F0070078
:100F3000B84201D00120DCE72878400705D5A06839
:100F4000E96820F4E0600843A0602878000706D52F
:100F5000A068296920F4605040EAC100A06000F058
:100F60003FF8A168094AC1F30311515C01F01F0168
:100F7000C8400749086007480068BDE8F047FFF728
:100F800071BD00000020024000100240DC23000878
:100F900018000020100000200548064900688968F4
:100FA000054AC1F30221515C01F01F01C84070479E
:100FB00018000020001002401C24000805480649C3
:100FC00000688968054AC1F3C221515C01F01F0124
:100FD000C840704718000020001002401C24000880
:100FE00070B52549002318468A68CC6812F00C02B7
:100FF00004F00306214C4FEA640509D00C2A05D001
:10100000042A32D0082A00D1284670BD012E10D102
:101010000B681B0704D4D1F89430C3F3032302E018
:101020000B68C3F30313164E56F82330DAB10C2ABB
:10103000EBD1C86800F00300022818D0032818D0AC
:101040001846CA68CB68C2F30212C3F306234343AF
:10105000521CB3FBF2F2C868C0F34160401C400070
:10106000B2FBF0F070BD184670BD204670BD204642
:10107000E7E72846E5E70000001002400024F400FE
:10108000EC2300082DE9F84304006FD0FE4DA8685A
:1010900000F00C06E86800F003072078C00664D56D
:1010A00076B10C2E01D1012F0AD0A0690028286842
:1010B0007AD040F001002860FFF7B6FC80465DE082
:1010C0002868800702D5A0690028DED0216A286838
:1010D000000703D5286800F0F00004E0D5F894007C
:1010E000F02202EA1010814216D9084600F008FEEC
:1010F00000283BD1286840F0080028602868216A51
:1011000020F0F000084328606868E16920F47F401F
:1011100040EA0120686016E0286840F00800286076
:101120002868216A20F0F000084328606868E169B7
:1011300020F47F4040EA0120686026B9206A00F070
:10114000DFFD0028D5D1FFF74BFFA968CF4AC1F3D7
:101150000311515C01F01F01C840CD490860CD4822
:101160000068FFF77FFC00287ED12EE0CAE000BFB8
:10117000FFF75AFCA0EB0800022876D82868800701
:10118000F6D5286840F0080028602868216A20F019
:10119000F000084328606868E16920F47F4040EA75
:1011A0000120686011E0FFE720F001002860FFF7F0
:1011B0003BFC804606E000BFFFF736FCA0EB0800D2
:1011C0000228DAD828688007F6D42078C00740D0F3
:1011D000082E18D00C2E01D1032F14D06068B0F562
:1011E000803F17D0B0F5A02F286817D020F48030AA
:1011F0002860286820F4802028606068E0B1FFF74C
:1012000013FC804614E02868800322D5606800281B
:1012100078D01EE0286840F48030EDE740F480206C
:101220002860F7E7FFF700FCA0EB08006428A4D8CB
:1012300028688003F6D50CE0FFF7F6FB804605E052
:10124000FFF7F2FBA0EB0800642896D8286880031B
:10125000F6D4207880073BD5042E11D00C2E01D176
:10126000022F0DD0E06801E0B6E1FFE00028286819
:101270001ED040F480702860FFF7D6FB07460CE0D4
:10128000286840050CD5E0680028C1D008E000BF00
:10129000FFF7CAFBC01B022893D828684005F7D582
:1012A0006868217C20F0FE4040EA016068600FE041
:1012B00020F480702860FFF7B7FB074605E000BF09
:1012C000FFF7B2FBC01B0228B1D828684005F7D44D
:1012D0002078000729D560690028D5F8940012D03D
:1012E00040F00100C5F89400FFF79EFB074604E0BC
:1012F000FFF79AFBC01B022899D8D5F89400800705
:10130000F6D512E02BE120F00100C5F89400FFF7BC
:101310008BFB074605E000BFFFF786FBC01B0228DA
:1013200085D8D5F894008007F6D42078400766D594
:10133000A86D0027C00008D4A86D40F08050A865B3
:10134000A86D012700F08050009053480168C9053E
:1013500012D40168814641F480710160FFF764FB9B
:10136000804605E0FFF760FBA0EB080002287DD86F
:10137000D9F80000C005F5D5A068012816D00528C9
:10138000D5F8900017D020F00100C5F89000D5F8EE
:10139000900020F0040000BFC5F89000A06841F262
:1013A0008839C0B1FFF740FB80460FE0D5F89000C8
:1013B00040F00100F0E740F00400C5F89000F5E7C8
:1013C000FFF732FBA0EB080149454FD8D5F8900054
:1013D0008007F5D50EE0FFF727FB804606E000BF4B
:1013E000FFF722FBA0EB080149453FD8D5F8900054
:1013F0008007F5D41FB1A86D20F08050A865207833
:10140000800628D5606A0028D5F8980012D040F0F0
:101410000100C5F89800FFF707FB074605E000BF8D
:10142000FFF702FBC01B022820D8D5F898008007E0
:10143000F6D510E020F00100C5F89800FFF7F4FAA7
:10144000074604E0FFF7F0FAC01B02280ED8D5F8D3
:1014500098008007F6D4A06AA8B1022824D00C2EE8
:101460007DD0286820F08070286000E0B3E0286814
:10147000000103D4E86820F00300E860E868074949
:101480000840E8600CE09FE000100240DC23000808
:10149000180000201000002000700040FFFFEEFE4A
:1014A000FFF7C2FA044699E0E868E26A00F0030137
:1014B000914226D1216B00F070020901103991424E
:1014C0001FD1626B00F4FE41B1EB022F19D194F8E9
:1014D000382000F07841B1EBC26F12D1A18F00F437
:1014E000C00249084905A1F50011914209D194F8BB
:1014F000401000F0C06049084906A1F10071814226
:101500004BD00C2E6FD0286840016CD4286820F096
:1015100080702860FFF788FA064604E0FFF784FA37
:10152000801B022857D828688001F7D4F4E90B0102
:101530006FF00F0202EB01110843218A520449089F
:1015400002EB4151A26841EA02210843217D4FF09C
:101550007E42490802EB41610843217B00E042E002
:1015600040EAC160E968214A11400843E860286800
:1015700040F080702860E86840F08070E860FFF715
:1015800053FA044605E000BFFFF74EFA001B02289D
:1015900021D828688001F7D523E02868800120D46D
:1015A000286840F080702860E86840F08070E8604B
:1015B000FFF73AFA044604E0FFF736FA001B022868
:1015C00009D828688001F7D50BE000BFFFF72CFA97
:1015D000001B022802D90320BDE8F8832868800197
:1015E000F4D40020F8E70120F6E700008C809D018C
:1015F00010B5401EB0F1807F01D3012010BD4FF027
:10160000E02460610F21601700F09BFE0020A061C4
:1016100007202061002010BD704708B5032000900E
:1016200008BD00002DE9F04102680446D069116848
:10163000936840F60F0528424FF0000505D1860655
:101640007BD58E0679D5216E88E04D4F03F00106DB
:101650000F40374371D0C70707D0CF0505D5012705
:101660001762E26F42F00102E267820708D5DA07EB
:1016700006D0276802223A62E26F42F00402E26773
:10168000420708D5DA0706D0236804221A62E26FFF
:1016900042F00202E26702070AD501F0200232435B
:1016A00006D0236808221A62E26F42F00802E2675D
:1016B000020509D54A0107D523684FF400621A6272
:1016C000E26F42F02002E267E26F002A2ED080062D
:1016D00005D5880603D5216E09B120468847E06FFD
:1016E00021688968490602D410F0280F20D02046CE
:1016F00000F058FC20688168490614D5816821F003
:1017000040018160E06E70B11E498163E06EFFF7B9
:1017100091F800280AD0E06E816B00E02046BDE819
:10172000F041084709E02046FFF777FFBDE8F08168
:101730002046FFF772FFE567F8E7C60209D55B02AE
:1017400007D54FF4801010622046BDE8F041FFF746
:1017500063BF030605D50B0603D5616E0029DDD1F5
:10176000E4E74006E2D54806E0D51168204621F0BE
:101770004001116020216167656600F0ECF9D5E752
:1017800020010004911F000810B5040002D0606F12
:1017900010B107E0012010BD002084F87000204641
:1017A00000F026F8242060672068016821F001011C
:1017B0000160204600F060FC0128ECD0606A10B1A6
:1017C000204600F055FB2068416821F490414160BB
:1017D0002068816821F02A0181602068016841F059
:1017E000010101602046BDE8104000F0A5BB0000EB
:1017F000F0B587B0044614216846FEF720FD254F5A
:101800002668002224490223032407254FF0904034
:10181000BE4222D10E6E46F480460E660E6E06F46F
:1018200080460596CE6C46F00106CE64C96C02AEC9
:1018300001F0010105916102CDE9001386E8340051
:101840006946FFF71FF8002211462520FFF750F9DF
:101850002520FFF73FF907B0F0BD104FBE42FAD187
:101860008E6D46F400368E658E6D06F40036059654
:10187000CE6C46F00106CE64C96C02AE01F00101E7
:1018800005910C21CDE9001386E834006946FEF786
:10189000F9FFE0E70038014000100240004400403A
:1018A0002DE9F84F0446806F9A4616460D462028CB
:1018B0006BD1EDB1E6B194F87000012865D001203C
:1018C00084F870004FF00008C4F87C802220A067E4
:1018D000FFF7AAF8A4F858608146A4F85A60A068F7
:1018E0004FF48053FF21984208D122691AB11CE0BD
:1018F000012000F04CB840F2FF1116E07F2290B1B9
:10190000B0F1805F14D0A4F85C8000BFB4F85C70C4
:10191000984201D1206990B12E46002584F870804C
:1019200007F0FF0825E0266936B9A4F85C10EDE75A
:10193000216909B13F21F8E7A4F85C20E6E7002619
:10194000ECE74B46002220212046CDF800A000F015
:1019500085FC08B10320CCE72068808C8EB100EABA
:10196000080006F8010B00BFB4F85A00401EA4F8A6
:101970005A00B4F85A000028E3D12020A0670020C4
:10198000B7E7384025F8020BEEE70220B1E718BCB4
:10199000BDE8E08F30B5836F202B4BD1B1B1AAB138
:1019A00090F87030012B45D0012380F870304165EC
:1019B000A0F85820A0F85A20002101661D03826873
:1019C000FF23AA4207D1026912B125E0012030BDF0
:1019D00040F2FF1226E07F24E2B1B2F1805F1ED018
:1019E000A0F85C10C167222282670268936843F006
:1019F000010393608268AA4201D10269C2B10E4A12
:101A0000026680F870100068016841F4907101600E
:101A1000002030BD026942B9A0F85C30E2E70269FB
:101A20001AB13F22A0F85C20DCE7A0F85C40D9E7BF
:101A3000024AE5E7022030BD1D200008C31F000850
:101A400038B5144C2078412804D06188002501293C
:101A500003D019E00120608038BD0A2806D00D4A65
:101A6000A168121D5054491CA1600DE009486A4646
:101A700009A1001DA560FEF7EDFB4FF0FF33012229
:101A80006946064800F00CF820785428E4D16580B7
:101A900038BD000000000020257500009C000020DB
:101AA0002DE9F8430446406F1F4616460D46202890
:101AB0004FD1CDB1C6B194F87000012849D00120B2
:101AC00084F870004FF00008C4F87C802120606723
:101AD000FEF7AAFFA4F850608146A4F85260A068FF
:101AE000B0F5805F03D004E00120BDE8F8832069F1
:101AF00028B12E465FF0000584F8708010E00026C3
:101B0000FAE78021204600F0A9FBB8B9C6B116F863
:101B1000010B21680885B4F85200401EA4F8520059
:101B2000B4F852004B464FF0000200970028E8D16D
:101B30004FF04001204600F091FB30B10320D4E784
:101B400035F8020BC0F30800E3E7202060670020AF
:101B5000CBE70220C9E77047FEE700000C4810B54C
:101B60000A4901604FF416414160002181600C2256
:101B7000C160C0E904128161C16101624162FFF785
:101B800003FE002801D072B6FEE710BD0038014008
:101B90001C0000200C4810B50A4901604FF4964122
:101BA0004160002181600C22C160C0E904128161A2
:101BB000C16101624162FFF7E7FD002801D072B602
:101BC000FEE710BD004400409C000020FEE7FEE759
:101BD000704700002DE9F041444C05468846E06816
:101BE0000026810728680DD0E16801F003018142D9
:101BF00016D1A8B1E0686968C0F30210401C8842A1
:101C00000ED120E0012804D0022805D0032807D1F6
:101C100008E02168890701E021684905002907DB00
:101C200001265FE02168890302D421684903F5E7B2
:101C3000E1686A686FF00F0321F0730103EB021291
:101C400011430143E160206820F080602060FEF7CE
:101C5000EBFE074605E000BFFEF7E6FEC01B0228CC
:101C600037D820680001F7D4B8F1000F18D0B8F1C8
:101C7000010F1DD0287D4FF07E41400801EB4060F0
:101C8000A96840EA01202169194A114008432061EE
:101C9000206840F080602060FEF7C6FE07461AE02C
:101CA000A868297B000240EAC1602169114AECE77B
:101CB000288A1149400801EB4050A96840EA0120F8
:101CC00021690E4AE1E700BFFEF7AEFEC01B022805
:101CD00001D9032606E020680001F5D52069A9692D
:101CE000084320613046BDE8F0810000001002404A
:101CF000FF80FFF9FF80FF070000E0FFFF809FFFEC
:101D0000F8B51C4D06460024A86DC00002D5FEF7AC
:101D100055FF0DE0A86D40F08050A865A86D00F05B
:101D200080500090FEF74AFFA96D21F08051A9650F
:101D3000B0F5007F04D0802E07D94FF003040AE0ED
:101D4000802E08D9A02E01D804E001D1022402E09F
:101D5000702E00D101240848016821F007012143B9
:101D60000160006800F00700A04201D00120F8BD2A
:101D70000020F8BD00100240002002407047FEF72E
:101D800059BE000030B5ABB044216846FEF757FAA3
:101D9000142126A8FEF753FA542111A8FEF74FFA92
:101DA000FEF714FF204850F8901F21F01801016041
:101DB0001420009001200290002460210690CDE9BB
:101DC00007410221CDE90A100C9028200D90072030
:101DD000CDE90E0168461091FFF754F908B172B6CB
:101DE000FEE70F2026900325CDE9275429940421EE
:101DF00026A82A94FFF740F808B172B6FEE71994B6
:101E000011A811951A94FEF7F1FE08B172B6FEE71B
:101E10004FF40070FEF79EFE08B172B6FEE7FEF7C3
:101E2000DDFE2BB030BD0000001002400D480168FF
:101E300041F4700101600C48016841F0010101604A
:101E4000002181600268094B1A4002608214C2605E
:101E5000026822F48022026081610249C003803955
:101E60000860704788ED00E000100240FFFFF6EACE
:101E700090F82410C90706D001684A68836A22F4E2
:101E800000321A434A6090F82410890706D5016889
:101E90004A68C36A22F480321A434A6090F82410D8
:101EA000490706D501684A68036B22F480221A4369
:101EB0004A6090F82410090706D501684A68436B08
:101EC00022F400421A434A6090F82410C90606D54D
:101ED00001688A68836B22F480521A438A6090F802
:101EE0002410890606D501688A68C36B22F4005263
:101EF0001A438A6090F82410490611D501684A688F
:101F0000036C22F480121A434A60016CB1F5801F01
:101F100006D101684A68436C22F4C0021A434A6041
:101F200090F82410090606D501684A68806C22F4EE
:101F3000002202434A607047F8B500260446C6678F
:101F4000FEF772FD0546206800686FF07E470007C7
:101F500008D52B4600224FF400112046009700F0D0
:101F60007DF960B92068006840070AD52B46002239
:101F70004FF480012046009700F070F908B103206B
:101F8000F8BD20206067A06784F870600020F8BD6D
:101F900010B5806A0021A0F85A10A0F85210FFF77F
:101FA0003CFB10BD01680A6822F490720A60016867
:101FB0008A6822F001028A6020218167002101667F
:101FC000704710B5B0F85C20836F0168222B04D0F5
:101FD000088B40F00800088310BD898C436D1140C8
:101FE0001980416D891C4165B0F85A10491EA0F84E
:101FF0005A10B0F85A100029EED101680A6822F48C
:1020000090720A6001688A6822F001028A602021C9
:10201000816700210166FFF713FD10BD10B5B0F810
:102020005C20836F0168222B04D0088B40F00800ED
:10203000088310BD898C1140426D1170416D491C9F
:102040004165B0F85A10491EA0F85A10B0F85A105D
:102050000029EED101680A6822F490720A600168D2
:102060008A6822F001028A602021816700210166CE
:10207000FFF7E6FC10BD00002DE9F04104460168C1
:1020800080682269E3691043626900251A4310439E
:102090006B4F0A686B4B1A4002430A602068416824
:1020A000E26821F44051114341602168A069B942BE
:1020B00001D0226A10438A6822F4306202438A60A7
:1020C0006149236861488B420DD1D0F8880010F037
:1020D000030006D0012838D0022834D0032821D1AB
:1020E00035E001211FE05A498B420BD1D0F888001E
:1020F00010F00C0025D0042827D0082823D00C2865
:1021000010D124E0BB420DD1D0F8880010F440601B
:1021100017D0B0F5806F18D0B0F5006F13D0B0F5C0
:10212000406F14D010214B4800264FF40042BB42B0
:102130002FD171B1022912D004290DD0082973D1F1
:1021400025E00021EFE70221EDE70421EBE708217C
:10215000E9E7FEF721FF01E0FEF742FFF0B3626816
:1021600002EB420181425FD8B0EB023F5CD8010E26
:10217000000273084FEA3207C01959410023FEF7E5
:1021800023F8354AA0F54071914251D94CE01046F0
:10219000E5E7E3694FF6EF77934229D1092943D266
:1021A000DFE801F005080E420B4242422400FEF730
:1021B000F3FE04E0FEF702FF01E0FEF711FF68B155
:1021C0004100606801EB5001B1FBF0F080B2A0F17A
:1021D0001001B94228D84FF6F07100E02AE0014022
:1021E000C0F3420001432068C16023E01046E7E7E6
:1021F000092919D2DFE801F005080E180B18181884
:102200001A00FEF7C9FE04E0FEF7D8FE01E0FEF773
:10221000E7FE78B1616800EB5100B0FBF1F080B2ED
:10222000A0F11001B94203D9012503E01046F1E7FE
:102230002168C860266628466666BDE8F081000011
:1022400000800040F369FFEF0038014000100240B9
:10225000004400400024F400FFFC0F002DE9F0478B
:102260009A4617460E4604464FF000094FF02008E4
:10227000089D39E0681C37D0FEF7D6FBA0EB0A00BA
:10228000A84222D80DB32068016849072CD5C0693F
:10229000C043000528D421684FF40060086220681C
:1022A000016821F4D07101602068816821F001018A
:1022B0008160C4F87480C4F87880C4F87C8000BF62
:1022C00084F870900320BDE8F0872068016821F44D
:1022D000D07101602068816821F001018160C4F83B
:1022E0007480C4F87880EBE72068C06936EA0000A3
:1022F00004D00020B842BDD00020E4E70120F9E777
:1023000038B54FF0FF342346012269460948FFF7EC
:10231000C7FA2346012269460748FFF7C1FB234657
:10232000032206A10448FFF7BBFB0248FFF77AF936
:1023300038BD00001C0000209C0000200D0A000099
:10234000FEE70907090E002804DB00F1E02080F811
:102350000014704700F00F0000F1E02080F8141D19
:10236000704702E008C8121F08C1002AFAD170475E
:102370007047002001E001C1121F002AFBD1704705
:1023800008B5FEF75FFBFFF7FDFC1148C16C41F09B
:102390000401C164C16C01F004010091C16C41F001
:1023A0000101C164C06C00F001000090FFF7D6FB92
:1023B000FFF7F0FB62B607480068016841F02001B2
:1023C0000160012204490348FFF7E4FAFEE7000038
:1023D000001002401C00002000000020000000004F
:1023E000000000000102030406070809A08601009E
:1023F000400D0300801A060000350C0040420F001B
:1024000080841E0000093D0000127A000024F400C0
:1024100000366E010048E801006CDC02000000009C
:1024200001020304DDDDDDDDDCBBBBDDDDDDDDDD8B
:10243000DDDDDDDD988888888888888877777777FC
:1024400077888888855555566666666666666666C8
:102450006668888883333332222222222222222273
:102460002228888D84240008000000201C00000021
:1024700062230008A02400081C00002004050000BE
:1024800072230008000000000000000000000000AF
:1024900001000000100000000000000000093D00E5
:040000050800018D61
:00000001FF
