:020000040800F2
:10000000F8040020A5010008E31A0008D31900082D
:10001000E11A0008590300083D2100080000000013
:10002000000000000000000000000000911C00081B
:100030005B03000800000000E51A0008931C00089C
:10004000BF010008BF010008BF010008BF01000890
:10005000BF010008BF010008BF010008BF01000880
:10006000BF010008BF010008BF010008BF01000870
:10007000BF010008BF010008BF010008BF01000860
:10008000BF010008BF010008BF010008BF01000850
:10009000BF010008BF010008BF010008BF01000840
:1000A000BF010008BF010008BF010008BF01000830
:1000B000BF0100080000000000000000BF010008B0
:1000C000BF0100080000000000000000BF010008A0
:1000D00000000000BF010008BF0100080000000090
:1000E000BF010008BF010008000000000000000080
:1000F0000000000000000000000000000000000000
:10010000000000000000000000000000BF01000827
:100110000000000000000000BF010008BF0100084F
:10012000BF010008BF010008BF010008BF010008AF
:10013000BF010008000000000000000000000000F7
:10014000BF010008BF010008BF010008BF0100088F
:10015000BF010008BF010008BF010008BF0100087F
:10016000BF010008BF010008BF0100080000000037
:10017000BF010008BF0100080000000000000000EF
:10018000BF010008BF010008BF010008DFF810D060
:1001900000F096F80048004725230008AFF30080E0
:1001A000F80400200648804706480047FEE7FEE7BF
:1001B000FEE7FEE7FEE7FEE7FEE7FEE7FEE7FEE717
:1001C000591D00088D0100082DE9F05F054600204B
:1001D00092469B4688460646814640241BE02846B8
:1001E00041464746224600F05AF853465A46C01A3E
:1001F000914110D311461846224600F041F82D1ABD
:1002000067EB01084F4622460120002100F038F834
:1002100017EB00094E41201EA4F10104DFDC484623
:1002200031462A46434600F000B830BCBDE8C09FC6
:10023000D2B201E000F8012B491EFBD27047002228
:10024000F6E710B513460A4604461946FFF7F0FFD5
:10025000204610BD30B50B46014600202022012467
:1002600009E021FA02F59D4205D303FA02F5491B84
:1002700004FA02F52844151EA2F10102F1DC30BD9A
:10028000202A04DB203A00FA02F100207047914056
:10029000C2F1200320FA03F3194390407047202A4B
:1002A00004DB203A21FA02F00021704721FA02F320
:1002B000D040C2F120029140084319467047000027
:1002C000064C074D06E0E06840F0010394E80700A3
:1002D00098471034AC42F6D3FFF75CFF1C240008AB
:1002E0003C24000870B504460068816811F0010FD5
:1002F0002DD18168174A11421AD18168D54329400E
:10030000491C816000F0B0FC06461BE0816811F0DA
:10031000010F03D181682940491C816000F0A4FCD1
:10032000801B02280ED920680068C043C00709D08E
:10033000606D40F010006065A06D40F00100A065A8
:10034000012070BD20680168C943C907DED10020C3
:1003500070BD00003F000080FEE770472DE9F84FB8
:1003600000270446009790F85000DFF8B0930D4640
:10037000B846012811D0012684F85060206801F0A9
:1003800033FB60B1606D40F0200060655FF00107F5
:1003900084F85080384600F0D7B90220FBE769683E
:1003A0000C20052912D8022907D0032907D00429D7
:1003B00007D0052907D0062107E0686006E0122172
:1003C00003E0182101E04FF480716960D5E9002154
:1003D000236800EA91101844036B01F01F014FF0ED
:1003E0001F0C0CFA01FCC2F3846223EA0C038A405E
:1003F00013430363206801F0F7FA8246206801F096
:10040000EFFA5AEA00001DD1AA682968206801F0B5
:10041000F7FA20686969C268C2F3C10252009140CC
:100420002A69042A0FD000EB82002B68026EDFF8E5
:10043000F0C203F0F84302EA0C020B431A4342F005
:100440000041016672E0002101F0C4FA4003206817
:100450004FF0000172D001F0BDFA90FAA0F0B0FAAE
:1004600080F1286842036ED090FAA0F0B0FA80F0D4
:10047000814204D100221146206801F0D0FA012106
:10048000206801F0A7FA400320684FF001015DD019
:1004900001F0A0FA90FAA0F0B0FA80F128684203C7
:1004A00059D090FAA0F0B0FA80F0814204D1002235
:1004B0000121206801F0B3FA0221206801F08AFAD4
:1004C000400320684FF0020148D001F083FA90FA0F
:1004D000A0F0B0FA80F12868420344D090FAA0F06E
:1004E000B0FA80F0814204D100220221206801F09C
:1004F00096FA0321206801F06DFA400320684FF05E
:10050000030133D001F066FA90FAA0F0B0FA80F15E
:10051000286842032FD090FAA0F0B0FA80F0814210
:1005200004D100220321206801F079FA2068816853
:1005300011F0010F22D0ACE000E004E001F04AFA33
:10054000C0F384618DE7C0F3846091E701F042FA63
:10055000C0F38461A2E7C0F38460A6E701F03AFA31
:10056000C0F38461B7E7C0F38460BBE701F032FAFF
:10057000C0F38461CCE7C0F38460D0E72A7B2968AC
:1005800050F8B03FC1F3120C23EA0C0302F0180C30
:10059000644A22FA0CF20A4013430360E9684945B1
:1005A00077D1286841031CD090FAA0F1B1FA81F10B
:1005B000491C01F01F0109294FEA403132D80029B6
:1005C00012D000BF90FAA0F1B1FA81F101F101015E
:1005D00001F01F0106FA01F609D100BFC0F38461E2
:1005E00009E0C0F38461E3E7C0F38461EEE790FAC9
:1005F000A0F1B1FA81F101F1010101F01F0146EA18
:10060000816102D1C0F3846003E090FAA0F0B0FAF7
:1006100080F000F1010000F01F0000EB400041EA13
:10062000005132E000290ED090FAA0F1B1FA81F128
:1006300001F1010101F01F0106FA01F606D100BF28
:10064000C0F3846106E0C0F38461F1E790FAA0F1A1
:10065000B1FA81F101F1010101F01F0146EA816166
:1006600002D1C0F3846003E090FAA0F0B0FA80F009
:1006700000F1010000F01F002B4A00EB400002EBEC
:10068000005041EA000141F00071AA68206801F0C1
:10069000B7F926482A6802423FF47AAE24488168B6
:1006A000244D254B01F0E071AA421BD10D0219D453
:1006B00022689A427FF46CAE826841F4000122F015
:1006C000E0720A4382601D481D490068B0FBF1F0EA
:1006D000401C00EB4000800000E0401E009000281D
:1006E000FBD155E6174DAA4207D1CD0105D42268AA
:1006F0009A42F6D141F080710AE06FF00045EA427B
:10070000EFD14A02EDD422689A42EAD141F4800145
:10071000826822F0E0720A43826039E600007F407E
:1007200000F0FF03FFFF0700000020FE000008802C
:1007300000030450000052C7000004500C000020C9
:10074000400D0300000084CB18BCBDE8E08F0068BA
:10075000006C7047F8B54FF0000504002E46009578
:1007600002D0606D10B107E00120F8BD204600F016
:10077000C9F8A66584F8506020688168C1F34071AB
:1007800019B18168574A1140816020688168C1F3BE
:10079000007189B98168544A114041F080518160EB
:1007A000524853490068B0FBF1F04000801C00E063
:1007B000401E00900028FBD120688168C1F30071C1
:1007C00041B9616D41F010016165A16D41F0010118
:1007D000A165012501F008F9616DC90600D430B1A9
:1007E000606D40F01000606501252846F8BD606D21
:1007F00020F4807040F0020060652068806810F08E
:10080000010F0BD13B48806810F0010F06D13A4828
:100810006168826822F47C120A438260E168606B3E
:10082000627E0843A16841EA4231084394F82010EF
:1008300040EA0140012904D1A18C304A02EB414138
:100840000843A16A29B101F47071E26A014342EAE6
:1008500001002168CA682A4B1A400243CA60206816
:1008600001F0C2F80646206801F0BAF8304315D10D
:10087000207E94F83010800340EA41002168CA6865
:1008800044F202039A430243CA6094F838000128F4
:100890000CD02068016921F0010101612069012863
:1008A0002068016B21F00F0111D013E0D4E90F0192
:1008B0000843D4E911121143084321680A6940F240
:1008C000FC739A43104340F001000861E6E7E269D7
:1008D000521E11430163606D20F0020040F00100E0
:1008E000606582E7C0FFFF5FC0FFFF7F0C00002054
:1008F000400D030000000450000304500000FEFF00
:1009000007C0F0FF10B586B0044614216846FFF713
:1009100096FC1149206888421BD11048C16C41F4F3
:100920000051C164C16C01F400510591C16C41F0EA
:100930000101C164C06C694600F0010005901020FF
:1009400000900B200190002002904FF0904000F0AA
:10095000B5F806B010BD00000000045000100240C1
:100960002DE9F041044640690E4608280AD0206867
:10097000C068C00708D0606D40F0200060650120AD
:10098000BDE8F081082500E0042500F06DF9074678
:1009900014E0701C12D000F067F9C01BB04200D800
:1009A00066B920680068284208D1606D40F00400F4
:1009B0006065002084F850000320E1E720680068AB
:1009C0002842E6D0606D40F400706065206801F058
:1009D0000FF880B1607E70B92068006800070AD502
:1009E000606D20F480706065606DC00403D4606D3C
:1009F00040F0010060652068C168082D05D04904F9
:100A000001D40C2101600020BAE70821FAE70000B8
:100A100010B50446006800F0E7FF10B10221084657
:100A200010BD94F8500001280CD0012084F850002B
:100A30002046FFF757FC01004FF0000004D084F877
:100A40005000ECE7022010BD626D40F601639A434E
:100A500042F480726265626DD20404D5A26D22F008
:100A60000602A26500E0A06523681C221A6084F8D3
:100A700050002068C268920105D5626D22F40052D0
:100A800042F4805262658268024B1A40121D8260F5
:100A9000C5E70000C0FFFF7F70B5044600F0E4F832
:100AA0000546601C02D004480078044400F0DCF8DD
:100AB000401BA042FAD370BD000000202DE9FC4F7E
:100AC000DFF880A1002301250AF1040B03244FF075
:100AD0000F0C0BF1040EAEE005FA03F632406FD0B6
:100AE0004F68012F05D0022F03D0112F01D0122FF4
:100AF00017D1D0F808905F0004FA07F829EA08092E
:100B00000097D1F80C8008FA07F848EA0908C0F8FD
:100B100008804768B7430E79C6F300169E403E43EF
:100B20004660C6684FEA430804FA08F7BE430197D7
:100B30008F6807FA08F73743C7604E68022E01D066
:100B4000122E13D1DE0800EB86060096366A5F0788
:100B5000FF0E0CFA07F926EA0906D1F8109009FAF7
:100B600007F949EA0609009EC6F820900768019E29
:100B7000B7430E7906F0030606FA08F63E43066010
:100B80004E68F60056D5304E376E47F0010737668F
:100B9000366E23F0030706F0010600962B4E3E4406
:100BA000B146B6689F074FEA17780CFA08F7BE43BC
:100BB000B0F1904F05D0264FB84204D1012708E08C
:100BC00038E0002705E0234FB84201D1022700E0BA
:100BD000072707FA08F73743C9F80870DAF8006002
:100BE0005746D1F8048096435FEAC83800D51643CB
:100BF0003E60DBF800605F46D1F8048096435FEA10
:100C0000883800D516433E60DEF800607746D1F89C
:100C1000048096435FEAC82800D516433E60094F1A
:100C20000C373E68D1F8048096435FEA882800D5E7
:100C300016433E605B1C0A6832FA03F67FF44CAF41
:100C400000F00AB80004014000100240000001401A
:100C500000040048000800481CBCBDE8E08F0AB151
:100C60008161704781627047014880687047000069
:100C700000000020024881680278114481607047BA
:100C80000000002010B50024032000F063F80020CD
:100C900000F008F808B1012401E000F025F8204632
:100CA00010BD000070B50E4E05460024307898B196
:100CB0004FF47A71B1FBF0F00A490968B1FBF0F02A
:100CC00000F0A8FD40B9102D06D200222946501E82
:100CD00000F020F8756000E00124204670BD00009F
:100CE000000000200C000020094808B5016E41F00A
:100CF00001010166016E01F001010091816D41F079
:100D000080518165806D00F08050009008BD00002A
:100D100000100240F0B40E4B1B680C46C3F30223D4
:100D2000C3F10705042D00D90425191D072901D297
:100D3000002300E0DB1E012606FA05F1491E2140D2
:100D400099409E40761E16403143F0BC01F012BA25
:100D50000CED00E0064900F0070208684FF6FF03BB
:100D6000184040EA0220034A104308607047000020
:100D70000CED00E00000FA051649B0F5007F0868A8
:100D8000C0F3412009D0022805D0086820F4C060D3
:100D900040F480600860002070470128FBD008689C
:100DA00020F4C06040F4007008600B4832220068F4
:100DB00050430A4AB0FBF2F0401C00E0401E4A6972
:100DC000520501D50028F9D148694005E3D5032033
:100DD00070470000007000400C00002040420F00EF
:100DE0000248006800F4C0607047000000700040D6
:100DF0000248016841F48071016070470070004052
:100E00000248016841F0040101607047001002408F
:100E10002DE9F84F0446002700889C4D3E4600050A
:100E200015D5E06B60B1B0F5000F04D0B0F5400F00
:100E30002BD001270AE0E86840F48030E86024E025
:100E40000021201D00F050FE07001ED03E46206805
:100E5000800338D5A86D4FF00008C00009D4A86DF4
:100E600040F08050A865A86D4FF0010800F0805058
:100E70000090DFF81CA2DAF8001041F48071CAF883
:100E80000010FFF7F1FE814610E0D5F88800E16B15
:100E900020F440000843C5F88800D8E7FFF7E4FED7
:100EA000A0EB0900022801D9032704E0DAF80000CA
:100EB000C005F3D5EFB33E46B8F1000F03D0A86DDF
:100EC00020F08050A8652078C00707D0D5F88800AA
:100ED000216A20F003000843C5F8880020788007C5
:100EE00007D5D5F88800616A20F00C000843C5F8E2
:100EF00088002078800607D5D5F88800A16A20F4FC
:100F000040600843C5F888002088800507D5D5F8DB
:100F10008800616B20F440200843C5F888002088D1
:100F2000400509D5D5F88800A16B20F4401008438E
:100F300000E02EE0C5F888002078400607D5D5F8F7
:100F40008800E16A20F440500843C5F888002088F2
:100F5000C00507D5D5F88800216B20F44030084340
:100F6000C5F8880020884FF0006780044FF0806843
:100F70004ED5D5F88800216C20F040600843C5F8B4
:100F80008800206CB8423BD1E86840F48010E860EB
:100F90003EE0D5F8900010F4407014D0216D8142ED
:100FA00011D0D5F89000D5F8901020F4407041F49D
:100FB0008031C5F89010D5F8901021F48031C5F833
:100FC0009010C5F89000C00711D0FFF74DFE0746FE
:100FD00041F2883907E000BFFFF746FEC11B4945D3
:100FE00001D9032668E7D5F890008007F4D5D5F835
:100FF0009000216D20F440700843C5F890005BE735
:10100000404505D10121201D00F06EFD00B10646CE
:101010002068400317D5D5F88800616C20F0406047
:101020000843C5F88800606CB84204D1E86840F411
:101030008010E86007E0404505D10121201D00F047
:1010400053FD00B106462088400411D5D5F888002C
:10105000A16C20F040500843C5F88800A06CB0F1A6
:10106000805F05D10221201D00F03EFD00B1064643
:101070002088000406D555F8880FE16C20F08040E8
:1010800008432860304600F005B800000010024018
:101090000070004018BCBDE8E08F00002DE9F0476B
:1010A0000F46050058D0404E306800F00700B842A7
:1010B00009D2306820F0070038433060306800F013
:1010C0000700B84248D12878384CC0072CD068684F
:1010D000032811D0022812D0216898B149050029AF
:1010E0003ADAA16821F003010143A160FFF7BCFDDA
:1010F000804641F2883910E021688901EFE72168D4
:101100008903ECE78907EAE7FFF7AEFDA0EB0801EA
:10111000494502D90320BDE8F087A068696800F05E
:101120000C00B0EB810FEFD12878800705D5A068BF
:10113000A96820F0F0000843A060306800F00700C4
:10114000B8420BD9306820F007003843306030686F
:1011500000F00700B84201D00120DCE72878400702
:1011600005D5A068E96820F4E0600843A06028780D
:10117000000706D5A068296920F4605040EAC10044
:10118000A06000F03FF8A168094AC1F30311515C67
:1011900001F01F01C8400749086007480068BDE822
:1011A000F047FFF77FBD0000002002400010024022
:1011B000D42300080C000020040000200548064944
:1011C00000688968054AC1F30221515C01F01F01E2
:1011D000C84070470C000020001002401424000892
:1011E0000548064900688968054AC1F3C221515C77
:1011F00001F01F01C84070470C00002000100240A1
:101200001424000870B52549002318468A68CC6864
:1012100012F00C0204F00306214C4FEA640509D0D9
:101220000C2A05D0042A32D0082A00D1284670BDE5
:10123000012E10D10B681B0704D4D1F89430C3F3EE
:10124000032302E00B68C3F30313164E56F8233052
:10125000DAB10C2AEBD1C86800F00300022818D0DC
:10126000032818D01846CA68CB68C2F30212C3F329
:1012700006234343521CB3FBF2F2C868C0F341603B
:10128000401C4000B2FBF0F070BD184670BD204617
:1012900070BD2046E7E72846E5E700000010024061
:1012A0000024F400E42300082DE9F84304006FD083
:1012B000FE4DA86800F00C06E86800F003072078EF
:1012C000C00664D576B10C2E01D1012F0AD0A069D9
:1012D000002828687AD040F001002860FFF7C4FC9D
:1012E00080465DE02868800702D5A0690028DED02E
:1012F000216A2868000703D5286800F0F00004E0A0
:10130000D5F89400F02202EA1010814216D908465E
:1013100000F080FC00283BD1286840F008002860DD
:101320002868216A20F0F000084328606868E169B5
:1013300020F47F4040EA0120686016E0286840F011
:10134000080028602868216A20F0F000084328601F
:101350006868E16920F47F4040EA0120686026B9AE
:10136000206A00F057FC0028D5D1FFF74BFFA96891
:10137000CF4AC1F30311515C01F01F01C840CD49B0
:101380000860CD480068FFF78DFC00287ED12EE074
:10139000CAE000BFFFF768FCA0EB0800022876D87F
:1013A00028688007F6D5286840F00800286028687B
:1013B000216A20F0F000084328606868E16920F4A1
:1013C0007F4040EA0120686011E0FFE720F0010063
:1013D0002860FFF749FC804606E000BFFFF744FCA9
:1013E000A0EB08000228DAD828688007F6D4207815
:1013F000C00740D0082E18D00C2E01D1032F14D0D6
:101400006068B0F5803F17D0B0F5A02F286817D0DE
:1014100020F480302860286820F4802028606068EC
:10142000E0B1FFF721FC804614E02868800322D554
:101430006068002878D01EE0286840F48030EDE72E
:1014400040F480202860F7E7FFF70EFCA0EB0800CF
:101450006428A4D828688003F6D50CE0FFF704FCC4
:10146000804605E0FFF700FCA0EB0800642896D852
:1014700028688003F6D4207880073BD5042E11D04D
:101480000C2E01D1022F0DD0E06801E0B6E1FFE0A3
:10149000002828681ED040F480702860FFF7E4FB25
:1014A00007460CE0286840050CD5E0680028C1D04C
:1014B00008E000BFFFF7D8FBC01B022893D82868BC
:1014C0004005F7D56868217C20F0F85040EA0160BB
:1014D00068600FE020F480702860FFF7C5FB0746C6
:1014E00005E000BFFFF7C0FBC01B0228B1D8286889
:1014F0004005F7D42078000729D560690028D5F881
:10150000940012D040F00100C5F89400FFF7ACFB46
:10151000074604E0FFF7A8FBC01B022899D8D5F8BE
:1015200094008007F6D512E02BE120F00100C5F809
:101530009400FFF799FB074605E000BFFFF794FB17
:10154000C01B022885D8D5F894008007F6D42078EF
:10155000400766D5A86D0027C00008D4A86D40F0EC
:101560008050A865A86D012700F080500090534876
:101570000168C90512D40168814641F48071016097
:10158000FFF772FB804605E0FFF76EFBA0EB08005B
:1015900002287DD8D9F80000C005F5D5A06801283B
:1015A00016D00528D5F8900017D020F00100C5F816
:1015B0009000D5F8900020F0040000BFC5F890001E
:1015C000A06841F28839C0B1FFF74EFB80460FE0BA
:1015D000D5F8900040F00100F0E740F00400C5F8B5
:1015E0009000F5E7FFF740FBA0EB080149454FD815
:1015F000D5F890008007F5D50EE0FFF735FB804663
:1016000006E000BFFFF730FBA0EB080149453FD8DB
:10161000D5F890008007F5D41FB1A86D20F0805058
:10162000A8652078800628D5606A0028D5F898003B
:1016300012D040F00100C5F89800FFF715FB0746EF
:1016400005E000BFFFF710FBC01B022820D8D5F82B
:1016500098008007F6D510E020F00100C5F898004A
:10166000FFF702FB074604E0FFF7FEFAC01B022863
:101670000ED8D5F898008007F6D4A06AA8B1022841
:1016800024D00C2E7DD0286820F08070286000E0E7
:10169000B3E02868000103D4E86820F00300E860A4
:1016A000E86807490840E8600CE09FE0001002404D
:1016B000D42300080C00002004000020007000402B
:1016C000FFFFEEFEFFF7D0FA044699E0E868E26A11
:1016D00000F00301914226D1216B00F07002090154
:1016E000103991421FD1626B00F4FE41B1EB022F21
:1016F00019D194F8382000F07841B1EBC26F12D1C3
:10170000A18F00F4C00249084905A1F500119142DA
:1017100009D194F8401000F0C06049084906A1F1D1
:10172000007181424BD00C2E6FD0286840016CD4E0
:10173000286820F080702860FFF796FA064604E0DB
:10174000FFF792FA801B022857D828688001F7D447
:10175000F4E90B016FF00F0202EB01110843218A3B
:101760005204490802EB4151A26841EA02210843B0
:10177000217D4FF07E42490802EB41610843217B05
:1017800000E042E040EAC160E968214A11400843B4
:10179000E860286840F080702860E86840F0807059
:1017A000E860FFF761FA044605E000BFFFF75CFA66
:1017B000001B022821D828688001F7D523E028687B
:1017C000800120D4286840F080702860E86840F0EC
:1017D0008070E860FFF748FA044604E0FFF744FA37
:1017E000001B022809D828688001F7D50BE000BF4C
:1017F000FFF73AFA001B022802D90320BDE8F8835C
:1018000028688001F4D40020F8E70120F6E7000002
:101810008C809D0110B5401EB0F1807F01D3012066
:1018200010BD4FF0E02460610F21601700F0A2FCB2
:101830000020A06107202061002010BD10B5040029
:1018400002D0A06F10B107E0012010BD002084F885
:101850007400204600F026F82420A0672068016864
:1018600021F001010160204600F026FB0128ECD0A8
:10187000606A10B1204600F08DFA2068416821F4BA
:10188000904141602068816821F02A0181602068D0
:10189000016841F0010101602046BDE8104000F000
:1018A000DDBA0000F0B587B0044614216846FEF7A3
:1018B000C6FC18492068884229D11748816D41F437
:1018C00000318165816D01F400310591C16C41F0F9
:1018D0000101C164C06C022500F0010005900420E4
:1018E00000268DE8610003240720CDE903404FF076
:1018F000904769463846FFF7E1F8A803CDE90005AF
:10190000CDE90264694604943846FFF7D7F807B07A
:10191000F0BD000000440040001002402DE9F843F3
:101920000446806F1F4616460D4620284FD1CDB184
:10193000C6B194F87400012849D0012084F87400DD
:101940004FF00008C4F880802120A067FFF78CF9D1
:10195000A4F850608146A4F85260A068B0F5805F9A
:1019600003D004E00120BDE8F883206928B12E46A9
:101970005FF0000584F8748010E00026FAE780210B
:10198000204600F089FBB8B9C6B116F8010B2168F2
:101990000885B4F85200401EA4F85200B4F8520072
:1019A0004B464FF0000200970028E8D14FF040016D
:1019B000204600F071FB30B10320D4E735F8020B6C
:1019C000C0F30800E3E72020A0670020CBE7022057
:1019D000C9E7FEE700EB8100006E00F0F8407047B9
:1019E0008068C0F3C00070478068C0F38000704713
:1019F000C06810F4406F01D000207047012070478C
:101A0000042303EAD15310B518444369C1F30451C8
:101A100007248C40A3438A401343436110BD00EB6D
:101A20008100016E21F00041114301667047000002
:101A300030B587B018216846FEF701FC18481749F1
:101A40000024C0E9001484600425C460C0E9044592
:101A5000047644760121C16180F820408462C4622A
:101A600080F83040446380F83840FEF773FE08B1D8
:101A700072B6FEE70B4800900620CDE901047F20F6
:101A80000594CDE9030569460548FEF767FC002883
:101A900001D072B6FEE707B030BD00000000045070
:101AA000100000200002B0250C4810B50A49016062
:101AB0004FF4E1314160002181600C22C160C0E936
:101AC00004128161C16101624162FFF7B7FE002823
:101AD00001D072B6FEE710BD004400407400002043
:101AE000FEE7FEE7704700002DE9F041444C054653
:101AF0008846E0680026810728680DD0E16801F07B
:101B00000301814216D1A8B1E0686968C0F30210F0
:101B1000401C88420ED120E0012804D0022805D0C4
:101B2000032807D108E02168890701E021684905F9
:101B3000002907DB01265FE02168890302D42168C0
:101B40004903F5E7E1686A686FF00F0321F073015C
:101B500003EB021211430143E160206820F0806032
:101B60002060FFF781F8074605E000BFFFF77CF82B
:101B7000C01B022837D820680001F7D4B8F1000F45
:101B800018D0B8F1010F1DD0287D4FF07E414008DC
:101B900001EB4060A96840EA01202169194A11401F
:101BA00008432061206840F080602060FFF75CF807
:101BB00007461AE0A868297B000240EAC160216953
:101BC000114AECE7288A1149400801EB4050A96806
:101BD00040EA012021690E4AE1E700BFFFF744F81F
:101BE000C01B022801D9032606E020680001F5D5B4
:101BF0002069A969084320613046BDE8F0810000F2
:101C000000100240FF80FFF9FF80FF070000E0FFA7
:101C1000FF809FFFF8B51C4D06460024A86DC0004C
:101C200002D5FFF7DDF80DE0A86D40F08050A86503
:101C3000A86D00F080500090FFF7D2F8A96D21F058
:101C40008051A965B0F5007F04D0802E07D94FF0F0
:101C500003040AE0802E08D9A02E01D804E001D1A7
:101C6000022402E0702E00D101240848016821F00E
:101C7000070121430160006800F00700A04201D085
:101C80000120F8BD0020F8BD0010024000200240F5
:101C90007047FEF7EFBF0000F0B5ABB0442115A8C8
:101CA000FEF7CDFA142126A8FEF7C9FA542168469A
:101CB000FEF7C5FAFFF79CF8264850F8901F21F070
:101CC0001801016014201590602001261D90002449
:101CD0001796CDE91B640225CDE91F560727CDE9EC
:101CE000237528202595CDE9216015A8FFF7DCFA9A
:101CF00008B172B6FEE70F2026900320CDE9270435
:101D00002994042126A82A94FFF7C8F908B172B6CD
:101D1000FEE744F202000090C00612901020CDE9C8
:101D20000260019600050994CDE90650CDE90475DD
:101D30006846FFF76DF808B172B6FEE74FF4007021
:101D4000FFF71AF808B172B6FEE7FFF759F82BB0A3
:101D5000F0BD0000001002400B48016841F4700122
:101D600001600A48016841F00101016000218160C1
:101D70000268074B1A4002608214C260026822F4B3
:101D8000802202608161704788ED00E0001002400F
:101D9000FFFFF6EA90F82410C90706D001684A68E8
:101DA000836A22F400321A434A6090F824108907AB
:101DB00006D501684A68C36A22F480321A434A6031
:101DC00090F82410490706D501684A68036B22F48D
:101DD00080221A434A6090F82410090706D501684A
:101DE0004A68436B22F400421A434A6090F8241078
:101DF000C90606D501688A68836B22F480521A43AB
:101E00008A6090F82410890606D501688A68C36B39
:101E100022F400521A438A6090F82410490611D522
:101E200001684A68036C22F480121A434A60016C0C
:101E3000B1F5801F06D101684A68436C22F4C002E4
:101E40001A434A6090F82410090606D501684A68CA
:101E5000806C22F4002202434A607047F8B50026E5
:101E60000446C0F88060FEF7FFFE05462068006863
:101E70006FF07E47000708D52B4600224FF4001173
:101E80002046009700F008F960B920680068400714
:101E90000AD52B4600224FF480012046009700F01F
:101EA000FBF808B10320F8BD2020A067E067266694
:101EB00084F874600020F8BD2DE9F0410446006804
:101EC0002269A168E6691143626900253243114322
:101ED0006A4B02686A4E32400A43026020684168D9
:101EE000E26821F44051114341602168A0699942A0
:101EF00001D0226A10438A6822F4306202438A6069
:101F00006049276860488F420DD1D0F8880010F0F2
:101F1000030006D0012838D0022834D0032821D16C
:101F200035E001211FE059498F420BD1D0F88800DC
:101F300010F00C0025D0042827D0082823D00C2826
:101F400010D124E09F420DD1D0F8880010F44060F9
:101F500017D0B0F5806F18D0B0F5006F13D0B0F582
:101F6000406F14D010214A4800264FF400429F428F
:101F70002DD171B1022912D004290DD0082971D1B7
:101F800023E00021EFE70221EDE70421EBE7082140
:101F9000E9E7FFF713F901E0FFF734F9E8B3626806
:101FA00002EB420181425DD8B0EB023F5AD8010EEC
:101FB00003025008181871410023FEF705F9354A4D
:101FC000A0F54071914251D94CE01046E7E7E36932
:101FD0004FF6EF77934229D1092943D2DFE801F088
:101FE00005080E420B4242422400FFF7E7F804E0E6
:101FF000FFF7F6F801E0FFF705F970B141006068FE
:1020000001EB5001B1FBF0F080B2A0F11001B94238
:1020100028D84FF6F071014000E029E0C0F34200FB
:1020200001432068C16023E01046E7E7092919D27F
:10203000DFE801F005080E180B1818181A00FFF752
:10204000BDF804E0FFF7CCF801E0FFF7DBF878B16A
:10205000616800EB5100B0FBF1F080B2A0F110011B
:10206000B94203D9012503E01046F1E72168C860B1
:1020700066662846A666BDE8F08100000080004044
:10208000F369FFEF003801400010024000440040B7
:102090000024F400FFFC0F002DE9F0479A46174694
:1020A0000E4604464FF000094FF02008089D39E025
:1020B000681C37D0FEF7D8FDA0EB0A00A84222D852
:1020C0000DB32068016849072CD5C069C0430005DD
:1020D00028D421684FF4006008622068016821F468
:1020E000D07101602068816821F001018160C4F82D
:1020F0007880C4F87C80C4F8808000BF84F8749035
:102100000320BDE8F0872068016821F4D0710160E8
:102110002068816821F001018160C4F87880C4F8EA
:102120007C80EBE72068C06936EA000004D000201C
:10213000B842BDD00020E4E70120F9E7FEE7000047
:102140000FB47CB50C0009AD01D0611E00E0002188
:10215000CDE90001064B6A462946089800F02AF8A6
:10216000002C02D0009A002111707CBC5DF814FB99
:102170000F2300080907090E002804DB00F1E02006
:1021800080F80014704700F00F0000F1E02080F8A4
:10219000141D704702E008C8121F08C1002AFAD1B6
:1021A00070477047002001E001C1121F002AFBD1D7
:1021B000704700002DE9FF4F89B09B46044600257B
:1021C00006E025280BD05A460B999047641C6D1CDD
:1021D00020780028F5D10DB0284600F095B80027EA
:1021E000B8460122474900E0074314F8013F203B6D
:1021F00002FA03F00842F7D120782E2819D114F8FA
:10220000010F47F004072A280ED06FF02F02207824
:10221000A0F1300109290CD808EB880102EB41013B
:1022200000EB0108641CF2E70A98641C50F8048B68
:102230000A9020780028CED0642808D0692806D0DB
:1022400075281ED05A460B9990476D1C58E00A9984
:102250004FF00A0901C90A91002802DA40422D21F3
:1022600002E0390504D52B218DF82010012103E06F
:10227000F90704D02021F7E78A4608AE0DE00021D7
:10228000FAE70A994FF00A0901C90A91F7E74946A6
:10229000FDF7E0FF303106F8011D0028F7D1ADEB66
:1022A000060000F12009780701D44FF00108C84565
:1022B00002DDA8EB090000E000208046002706E0D0
:1022C00008A85A46C05D0B9990476D1C7F1C574566
:1022D000F6DB04E030205A460B9990476D1CB8F1AC
:1022E0000001A8F10108F5DC05E016F8010B5A46DB
:1022F0000B9990476D1CB9F10001A9F10109F4DCBB
:10230000641C65E70928010030BCBDE8C08F4A683D
:10231000002A06D00A68531C0B6010704868401EE3
:102320004860704786B027A000680390FEF7AAFCBB
:10233000FFF7B2FC2448C16C41F00401C164C16CD8
:1023400001F004010491C16C41F00101C164C06C51
:1023500000F001000490FFF76BFBFFF7A5FB4FF0C7
:1023600090464FF0FF344FF416770122102130468B
:10237000FEF775FC1548FEF74BFB21461348FEF7A8
:10238000EFFA1248FEF7E3F9054600221021304625
:10239000FEF765FC2B460EA20C216846FFF7D0FE27
:1023A0000A4823460C2269466430FFF7B7FA07480B
:1023B0002346022203A96430FFF7B0FA3846FEF73D
:1023C0006BFBD2E70D0A0000001002401000002055
:1023D000256400000000000000000000010203046A
:1023E00006070809A0860100400D0300801A0600B8
:1023F00000350C0040420F0080841E0000093D00A3
:1024000000127A000024F40000366E010048E80152
:10241000006CDC0200000000010203043C24000800
:102420000000002010000000942100084C24000847
:1024300010000020E8040000A421000801000000B2
:0C244000100000000000000000093D003A
:040000050800018D61
:00000001FF
